:020000040800F2
:1000000098100020350200083D0200083F02000859
:1000100041020008430200084502000800000000F9
:10002000000000000000000000000000470200087F
:1000300049020008000000004B0200082D1C0008C7
:100040004F0200084F0200084F0200084F0200084C
:100050004F0200084F0200084F0200084F0200083C
:100060004F0200084F0200084F0200084F0200082C
:100070004F0200084F0200084F0200084F0200081C
:100080004F0200084F0200084F0200084F0200080C
:100090004F0200084F0200084F0200084F020008FC
:1000A0004F0200084F0200084F0200084F020008EC
:1000B0004F020008811C00084F0200084F02000890
:1000C0004F0200084F0200084F0200084F020008CC
:1000D0004F020008B11C00084F0200084F02000840
:1000E0004F0200084F0200084F02000800F002F81B
:1000F00000F090F80AA090E8000C82448344AAF132
:100100000107DA4501D100F085F8AFF2090EBAE82F
:100110000F0013F0010F18BFFB1A43F0010318473B
:100120004837000068370000103A24BF78C878C10B
:10013000FAD8520724BF30C830C144BF04680C60ED
:10014000704700000023002400250026103A28BF35
:1001500078C1FBD8520728BF30C148BF0B60704739
:100160006E2900F0D183702900F03185662903F0F3
:100170001F82652903F01C82672903F01982612917
:10018000AFF3008003681B0A28BF41F08001692992
:1001900000F0CA80642900F0C780752900F0C4808F
:1001A0006F2900F0BF84782900F0FD84E92900F070
:1001B0005984E42900F05684F52900F05384EF298E
:1001C00000F0BC84F82900F0FC840368DB0928BF38
:1001D00041F08001632900F0DA83732900F0DF83A6
:1001E000E32901F02F80F32901F0348000207047CB
:1001F0001FB500F0C7FD04000020002103F0ACF99A
:10020000401C60600020002103F0BCF9E0601FBDCD
:1002100010B510BD01F06EF81146FFF7E9FF02F0CE
:1002200027FC01F03BF903B4FFF7F2FF03BC01F038
:100230003BF900000948804709480047FEE7FEE710
:10024000FEE7FEE7FEE7FEE7FEE7FEE7FEE7FEE786
:1002500004480549054A064B704700003D1C00084C
:10026000ED000008980A002098100020980C00204B
:10027000980C00207CB51D4616460C00009001D05D
:100280002044401E074B7B442A4669460190304675
:1002900000F053FB05461CB10020694600F060FBEE
:1002A00028467CBDE10600000FB41CB5084B06AA29
:1002B0007B4469460090059800F03FFB044600200F
:1002C000694600F04DFB20461CBC5DF814FB0000A5
:1002D000AD06000070B50C460546012A05D0287809
:1002E000800600D5EA69002302E0012305E05B1CDB
:1002F000934202D2E05C0028F9D1A869E618C01A3E
:10030000A861286A18442862284600F06BFA04E0C5
:10031000D5E9012114F8010B9047B442F8D32846DF
:1003200000F076FA70BD00002DE9F0410646002489
:1003300010687529314616A510D000F07AFA002809
:1003400002DA404213A507E031688A0701D512A5F9
:1003500002E0490704D511A5012401E000F072FA7A
:1003600000210A2206F1240709E0B0FBF2FCB0FBF1
:10037000F2F302FB1C00303078541846491C002868
:10038000F3D123462A463046BDE8F04100F063BA77
:10039000000000002D0000002B00000020000000E5
:1003A0002DE9F05F894604464FF0000ADFF874B18A
:1003B000FB44C0F820A02046E1688847002874D09C
:1003C000252806D0D4E901219047206A401C2062EC
:1003D000F1E700265F462046E16888472028054669
:1003E00007DB312D05D2781910F8200C08B106432F
:1003F000F1E7B00701D526F00406C4F81CA00027D9
:10040000C4F818A02A2D09D0284601F08DFC38B375
:1004100004EB8708303DC8F8185019E059F8041B60
:10042000204604EB87029161E1688847012F054669
:1004300018D1E069002820DA26F020061DE0D8F85F
:10044000180000EB800005EB40003038C8F81800B9
:100450002046E1688847054601F066FC0028EED199
:10046000012F0AD02E2D08D12046E16888477F1C35
:100470000546022F46F02006C4DBA069002803DAF7
:10048000404246F00106A061F00701D026F01006B8
:100490006C2D0BD0682D09D04C2D39D06A2D35D05C
:1004A000742D35D07A2D33D016E038E0E1682F4630
:1004B00020468847B842054609D16C2F26D04FF414
:1004C0008060E168064320468847054604E06C2FBB
:1004D0001AD04FF4807006430DB3A5F141001928DE
:1004E00002D8203546F400664A4629462046266052
:1004F0004E46FFF735FE80B101280BD0F61D26F0E1
:10050000070000F1080956E74020E4E78020D8E71B
:100510000020D6E706F104094DE7284652E7206A95
:10052000BDE8F09FD53200002DE9F04791460F4617
:1005300080460446002614F8015B2DB100F046F910
:100540000068405DC007F6D12B2D02D02D2D18D0AC
:10055000641E4A463946204600F044FB27B13968FC
:10056000A14201D1C7F800804FF0020471050BD5FC
:100570004042002803DD00F031F90460A007BDE827
:10058000F08746F48066E4E70028F8DA00F026F900
:1005900004606FF00040F2E7014A00F073BB000016
:1005A00030000020401ECAB210F8011F8A4202D05B
:1005B0000029F9D10020704740EA010310B59B07DC
:1005C0000FD1042A0DD310C808C9121F9C42F8D0BD
:1005D00020BA19BA884201D9012010BD4FF0FF306E
:1005E00010BD1AB1D30703D0521C07E0002010BD84
:1005F00010F8013B11F8014B1B1B07D110F8013B10
:1006000011F8014B1B1B01D1921EF1D1184610BDF0
:10061000032A40F2308010F0030C00F0158011F82E
:10062000013BBCF1020F624498BF11F801CB00F806
:10063000013B38BF11F8013BA2F1040298BF00F85A
:1006400001CB38BF00F8013B11F0030300F03C83FD
:10065000083AC0F0088051F8043B083A51F804CB3E
:10066000A0E80810F5E7121D5CBF51F8043B40F804
:10067000043BAFF30080D20724BF11F8013B11F80F
:1006800001CB48BF11F8012B24BF00F8013B00F853
:1006900001CB48BF00F8012B704702F0FF0343EA8B
:1006A000032242EA024200F002B84FF0000204299D
:1006B000C0F0128010F0030C00F03A83CCF1040C6F
:1006C000BCF1020F18BF00F8012BA8BF20F8022BC5
:1006D000A1EB0C0100F02CBB5FEAC17C24BF00F849
:1006E000012B00F8012B48BF00F8012B704710B513
:1006F000044610F0030F08BF11F0030F40F01580FF
:100700004FF0013E121FC0F20E8051F8043BA3EBE4
:100710000E0C2CEA030C1CEACE1C08BF40F8043B6C
:10072000F0D0A1F1040102F10402521E08DB11F81D
:10073000013B002B00F8013BF7D11146FFF7B5FF55
:10074000204610BD4FF0013C50F8042B51F8043BFB
:100750009A4221D1A2EB0C03934313EACC1317D195
:1007600050F8042B51F8043B9A4215D1A2EB0C032C
:10077000934313EACC130BD150F8042B51F8043BEC
:100780009A4209D1A2EB0C03934313EACC13DBD0BA
:100790004FF00000704700BFD01A01BAB1FA81F1E2
:1007A00001F0180122FA01F0CB40C1F12001DBB2C7
:1007B000C0B2C01A2CFA01F3D11A914311EAC31145
:1007C000E6D17047704770477047000010B500F0E1
:1007D000D9FA001D10BD00BF812D000000487047F0
:1007E000380A002070B5044685690068C10601D545
:1007F000302600E02026C00707D070BDD4E90121D3
:1008000030469047206A401C20626D1EF6D570BDB0
:1008100070B5044685690078C00707D170BDD4E97A
:10082000012120209047206A401C20626D1EF6D5D1
:1008300070BD09684A0501D540B27047C905FCD5AD
:1008400000B2704709684A0501D5C0B27047C905B2
:10085000FCD580B270472DE9F0470D469946924687
:10086000044600F124080168880604D5E06921F0F7
:100870001001216000E00120A84201DD471B00E0DB
:100880000027A1697A1902EB0900081AA0612078F3
:10089000C00602D42046FFF7A5FF002608E0D4E9F1
:1008A00001211AF806009047206A401C761C20623D
:1008B0004E45F4DB2078C0060AD52046FFF792FFAC
:1008C00006E0D4E9012130209047206A401C2062D4
:1008D000381EA7F10107F4DC07E0D4E9012118F87C
:1008E00005009047206A401C2062281EA5F10105E2
:1008F000F3DC2046FFF78CFF2078000602D50220AB
:10090000BDE8F0870120FBE711680268006A530523
:1009100001D508700AE0D30501D5088006E013066A
:1009200003D5C217C1E9000200E00860012070474A
:1009300001694A1C02610878704700B58FB0CDE9A3
:1009400001310021059105497944CDE90310114693
:100950006846FFF725FD0FB000BD0000E5FFFFFF73
:100960000A6802F8010B0A607047D1E900239A4235
:1009700002D2531C0B601070704710B5436913B15D
:10098000AFF3008001E0FFF7A5FC012010BD127855
:1009900000F124010A7000224A700122EDE711687B
:1009A0004FF0FF32E9E700002DE9FF5F15468A4668
:1009B0000446DFF8AC80F8440027D8E900103E4632
:1009C000CDE9001010E03AF816106A4602A800F0CF
:1009D00053FC411C07D02178890603D5E2693918F8
:1009E00091420DD80744761C2078800602D5E06934
:1009F000B84205DDAE42E6DB3AF816000028E2D147
:100A0000A069C01BA0612046FFF7ECFED8E90010EA
:100A1000CDE90010002017E03AF818106A4602A845
:100A200000F02AFCB0F1FF3F81460BD000250DF10C
:100A3000080B05E0D4E901211BF8050090476D1C67
:100A40004D45F7D308F10100B0428046E4DB206A4F
:100A5000384420622046FFF7DBFEBDE8FF9F000020
:100A6000E22C00002DE9F0418046D21D22F0070261
:100A70000025D2E90002F52915A614D0011E72F155
:100A8000000106DA0023D0EB030063EB020211A69B
:100A900008E0D8F800108B0701D50FA602E049073F
:100AA00001D50EA601251146002408F1240704E013
:100AB00000F06CF930323A55641C50EA0102F7D16B
:100AC0002B46324621464046BDE8F041FFF7C3BE03
:100AD000000000002D0000002B000000200000009E
:100AE00030B4002100F1240408E002F00705D20828
:100AF000303542EA4372DB086554491C52EA03056B
:100B0000F3D10468002310A2250708D504F02004BF
:100B10000C4304D0C46901230CA2641EC46130BC20
:100B2000FFF799BE10B5044621461068FFF78AFE0C
:100B300002462046BDE810400023D1E7D21D22F036
:100B40000701D1E90023CBE70000000030000000DE
:100B5000F0B40D460188090502D5214C7C4402E021
:100B60001F4C7C440E34002100F1240608E002F002
:100B70000F071209E75D42EA03721B097754491C0B
:100B800052EA0307F3D102780023120704D5702D2F
:100B900006D009B1022311342246F0BCFFF75BBE38
:100BA00001231034F8E770B504460D46214610685D
:100BB000FFF748FE024629462046BDE87040002364
:100BC000C6E7D21D22F00703D3E90023C0E703687C
:100BD000126843F0200303600823C3610023B7E7D2
:100BE000442B00002DE9F05F824615468B46002716
:100BF0000AF10104B9460078302801D09DB113E014
:100C000014F8010B0127782803D0582801D045B1EA
:100C10000AE00DB1102D07D1002714F8010B1025A3
:100C200002E0082500E00A250026B0460EE005FB9C
:100C3000080005FB06F101271FFA80F801EB1046BA
:100C4000B6F5803F00D3B94614F8010B294600F0F1
:100C500005FB0028EBDABBF1000F05D00FB1641ED5
:100C600000E05446CBF80040B9F1000F06D0FFF782
:100C7000B5FD02210160C81EBDE8F09F48EA0640AC
:100C8000FAE700002DE9F04115460E46040002D1B6
:100C90002C6804B90BA4204600F01EFB0444207805
:100CA00070B127463146384600F006FB04442078F0
:100CB00010B1002004F8010B38462C60BDE8F0812B
:100CC0000027F9E70000000010B5203AC0F00B80C3
:100CD000B1E81850203AA0E81850B1E81850A0E840
:100CE0001850BFF4F5AF5FEA027C24BFB1E818509A
:100CF000A0E8185044BF18C918C0BDE810405FEA0A
:100D0000827C24BF51F8043B40F8043B08BF704785
:100D1000D20728BF31F8023B48BF11F8012B28BF8A
:100D200020F8023B48BF00F8012B70474FF000024B
:100D300000B5134694469646203922BFA0E80C50D1
:100D4000A0E80C50B1F12001BFF4F7AF090728BFAC
:100D5000A0E80C5048BF0CC05DF804EB890028BF28
:100D600040F8042B08BF704748BF20F8022B11F051
:100D7000804F18BF00F8012B7047000000487047F3
:100D8000380A002000487047580A002030B5B0F1FA
:100D90000A024FEA900E71F100034EEA817EB0EB39
:100DA0000E0061EB91014FEA101E4EEA017E10EB3E
:100DB0000E0041EB11114FEA102E4EEA016E10EBBE
:100DC0000E0041EB11214FEA104E4EEA014E10EB9E
:100DD0000E0041EB1141401841F100014FEAD000F3
:100DE00040EA41704FEAD10110EB80054FEA8104DF
:100DF00044EA907444EB01046D1944EB0404521B63
:100E0000A3414FF0000348BF0A3200D530BD401C5B
:100E100041F1000130BD70472DE9FF4F0C461E46E1
:100E20004FF0FF378BB0D2E90001DDF860800A9007
:100E30008A46C1F30A5505B93D46002108464FF0E0
:100E40000000BAF1000F00F4400005DA00EB80006A
:100E50004FF4400101EA50004FEA9059B9F1010FF7
:100E600000DDB9460A9850EA4A000ED044F6105008
:100E7000A5F2FF3545432F14B8F1000F1ED075427F
:100E8000291E1EDDC9F100021CE0B8F1010F4FF070
:100E9000000001D0302103E0F24305E02154401C62
:100EA000B042FBDB30460022002121540B99C1F8EF
:100EB0000880C1E900200FB0BDE8F08FBD1B6D1C9C
:100EC000DEE74A4600DA694206A800F079FA06AB86
:100ED00093E8070003AB83E8070050460A9900F047
:100EE000EAFA8DE80700A0F500501F38009003983B
:100EF000002D09DD42F21F014A46084403A9039070
:100F0000684600F049FD08E0A0F500504A461F3849
:100F100003A90390684600F053FD8DE80700000424
:100F2000000C03D04FF0FF30410800E01046B8F14C
:100F3000000F03D00022009215461EE0751E05D456
:100F4000FFF724FF303262556D1EF9D5B3460122FA
:100F5000084302D000227F1C04E02078302801D111
:100F600000227F1E002A099786D01DE0112D07DA86
:100F7000FFF70CFF303262556D1C50EA0102F5D1CB
:100F8000084302D00098C8B10EE00021681E05E0B9
:100F9000235C625C63542254401E491C8142F7DB8F
:100FA000AB46A81B401E0990002004F80B000B98CC
:100FB000099AC0F80880C0E9002B7CE711264FF0A1
:100FC000000859E72DE9F04F88460446D21D22F06B
:100FD000070191B0D1E90001CDE90A0100F090FECE
:100FE00002460B98C00F01D02D2007E02068810732
:100FF00001D52B2002E0202101EAC000032A09903C
:1010000001D0072A05DB03464146204600F098F947
:101010000BE12078800601D5E06900E00620B8F1F8
:10102000650F814606D0B8F1660F18D0B8F1670F8A
:1010300070D131E00020B9F1110F009001DB1123D4
:1010400001E009F101030AAA01A90CA8FFF7E4FED7
:10105000DDE90C70002609F10105834647E0012017
:101060004B4600904FF000470AAA01A90CA8FFF7D1
:10107000D3FEDDE90DB00C995D46002610B909F1EB
:1010800001000D18B9EB050003D4C0F1FF3609F1DA
:101090000105A5EB09002BE0B9F1010F01DA4FF0D2
:1010A00001090020B9F1110F0090484601DD11231C
:1010B00000E003460AAA01A90CA8FFF7ADFEDDE98E
:1010C0000C704D4600268346207800070AD4AB45B5
:1010D00000DA5D4601A8012D04DD411911F8011C5B
:1010E000302907D04F4502DA17F1040F04DA012046
:1010F00082460FE06D1EEEE7002F02DCED1B3E4442
:1011000003E0781CA84200DD7D1CB81B00F1010A39
:101110004FF000472078000703D4AA4501DB4FF0C9
:10112000FF3A0021B7F1004F0DF143088DF843104D
:1011300024D002202B23002F01DA7F422D230A2105
:10114000021EA0F1010000DC5FB197FBF1FC97FBF0
:10115000F1F201FB1C7C17460CF1300C08F801CDB4
:10116000EEE7A8F1010003702188090501D54521AA
:1011700000E06521A0F1010800F8011C09980FA901
:10118000A1EB0807FF1D00B10120411901EBEA7036
:10119000A1693844081A401EA0612078C00602D414
:1011A0002046FFF71FFB099828B1D4E90121904799
:1011B000206A401C20622078C00622D52046FFF716
:1011C00011FB1EE0002E04DBB34502DD01A8805DAB
:1011D00000E03020D4E901219047206A401C2062C1
:1011E000761CAAF101005FEA000A0AD1FFF7CAFDE6
:1011F000C0680168405CD4E901219047206A401C26
:101200002062281EA5F10105DCDC07E0D4E90121FC
:1012100018F8010B9047206A401C2062381EA7F185
:101220000107F3DC2046FFF7F3FA032011B043E691
:1012300010B5436913B1AFF3008001E0FFF7B4FBD1
:10124000012010BD128800F1240182840022C28492
:101250000122EDE711684FF0FF32E9E73A2800D2AA
:10126000303820F02002412A01D3A2F13700884211
:1012700001D34FF0FF30704770B516460C46054657
:10128000FFF7A4FA036893F80101012806D0FF2CA8
:101290000FD8185D68B101202C7070BDD3F807011C
:1012A0003246214603F2071303442846BDE8704046
:1012B00018474FF0FF3070BD30B503461D781DB1A3
:1012C0000A4603E0AC4201D1181A30BD12F8014BB6
:1012D000002CF7D15B1CF1E730B503461D783DB11A
:1012E0000A4612F8014B1CB1AC42FAD15B1CF5E77F
:1012F000181A30BD7546FFF741FDAE460500694638
:10130000534620F00700854618B020B5FEF7A0FF31
:10131000BDE820404FF000064FF000074FF00008F6
:101320004FF0000B21F00701AC46ACE8C009ACE877
:10133000C009ACE8C009ACE8C0098D4670470000A0
:101340002DE9F0411F46044603260168072A01F4EF
:10135000006004DB08B116A505E016A503E008B19E
:1013600015A500E015A521F010002060A069C01EA1
:10137000A0610FB1401EA0612046FFF733FA4FB1C4
:10138000D4E9012138469047206A401C2062C01CE5
:10139000206206E0206AFAE7D4E9012115F8010B82
:1013A0009047761EF8D22046FFF732FABDE8F0816A
:1013B0004E414E006E616E00494E4600696E6600F9
:1013C0002DE9F047814616468AB0334878440DC867
:1013D0008DE80D0030487844801C03AC0DC884E8CB
:1013E0000D0041F69B300844372190FBF1F290FB51
:1013F000F1F5A5F1800501FB12041B3C02D5644206
:10140000012000E00020DFF890A080460027FA4489
:10141000AAF1BE0A0DE0E00709D03246684607EBA4
:1014200047010AEB810100F0CBFA8DE80700641058
:101430007F1C002CEFD1184F7F44AC3F18E0E80729
:1014400014D007EB04100DF1180A90E80E008AE89A
:101450000E00C068F04201D198190890324606A9E2
:1014600003A800F0ADFA03AB83E807006D10641C1D
:10147000002DE4D132466946B8F1000F03A802D02E
:1014800000F08AFA01E000F09BFAC9E90001C9F80E
:1014900008200AB0BDE8F087782300000446AFF3C7
:1014A00000802046FEF7BFFE01491820ABBEFEE7D4
:1014B0002600020070475FEA400C08BF91F0000F61
:1014C0004FEA8C234FEAC12243EA51514FEA1C50A4
:1014D00018BF00F5F0404FEA300018BF41F000415E
:1014E0005FEA6C5C00F02980BCF1FF3F08BF40F070
:1014F00080407047130C06BF12044FF0100C4FF0E1
:10150000000C130E04BF12020CF1080C130F04BFE1
:1015100012010CF1040C930F04BF92000CF1020CA9
:10152000D30F04BF52000CF1010C11464FF0000222
:10153000A0F11F00A0EB0C00704711F0004F08BF96
:10154000704731F000413FF4D5AF0B0C06BF0904E2
:101550004FF0100C4FF0000C0B0E04BF09020CF101
:10156000080C0B0F04BF09010CF1040C8B0F04BF16
:1015700089000CF1020CCB0F04BF49000CF1010CE7
:10158000CCF12003A0EB0C0022FA03F302FA0CF2D8
:1015900041EA030100F10100704720F07F4C80EA2E
:1015A000030023F07F47ACEB070303F57C5300F007
:1015B000004003F1FF032DE980494FEA154B09B4C0
:1015C0004FEA144325EA0B4E24EA03480FF204269F
:1015D00006EB132749083E785FEA320203FB0667F1
:1015E000C7F5000707FB06F64FEA54374FEAD64621
:1015F00006F1020607FB066CCCF1005C4FEA1C47C3
:101600002CEA074C07FB06F40CFB06F504EB154629
:101610004FEA961634BF00204FF000404FEAD13712
:1016200006FB07FC4FEA1C4C0CFB0BF7D21B03FB21
:101630000CF761EB07010CFB0EF7B0EB074072EB08
:1016400017420CFB08F734BFA2EB0742B2EB07428C
:1016500061EB17414FEA0C444FEA910706FB07FC88
:101660004FEA1C4C0CFB0BF7B0EBC74072EB573248
:1016700003FB0CF734BFA2EBC742B2EBC74261EBEE
:1016800057310CFB0EF7B0EBC70072EB57720CFB37
:1016900008F734BFA2EBC702B2EBC70261EB577188
:1016A000039F4FEA816141EA921104EBCC044FEAB7
:1016B000D1374FEA826206FB07FC42EA90124FEAFA
:1016C00080604FEA1C4C0CFB0BF7D21B03FB0CF7A2
:1016D00061EB07010CFB0EF7B0EB074072EB174212
:1016E0000CFB08F734BFA2EB0742B2EB074261EBF9
:1016F00017414FEA8C554FEA910704EB9C2406FBF7
:1017000007FC4FEA1C4C0CFB0BF7B0EBC74072EB2D
:10171000573203FB0CF734BFA2EBC742B2EBC74210
:1017200061EB57310CFB0EF7B0EBC70072EB577251
:101730000CFB08F734BFA2EBC702B2EBC70261EBA8
:10174000577115EB4C254FEA816141EA92114FEA3E
:1017500082624FEAD13742EA901206FB07FC44F15D
:1017600000044FEA80604FEA1C4C0CFB0BF7D21BC5
:1017700003FB0CF761EB07010CFB0EF7B0EB074026
:1017800072EB17420CFB08F734BFA2EB0742B2EB37
:10179000074261EB174115EB1C154FEA813141EA15
:1017A00092414FEA823242EA90424FEA80304FEA59
:1017B0000C7644F1000448EA03434EEA0B484FF02C
:1017C000000EB2EB080C71EB030724BF62463946EA
:1017D0004EEB0E0E4FF0000B0018524149414BEBFF
:1017E0000B0BB2EB080C71EB03077BF1000B24BF72
:1017F000624639464EEB0E0E4FF0000B0018524178
:1018000049414BEB0B0BB2EB080C71EB03077BF17F
:10181000000B24BF624639464EEB0E0E51EA02071A
:1018200018BF46F0010616EB0E7655F1000254F192
:10183000000103D5BDE88901BDE80088BDE8890144
:10184000BDE80048B619524141EB0101A3F1010383
:10185000704780807F7E7D7C7B7A7978777676751D
:101860007473727171706F6E6E6D6C6C6B6A6A6995
:101870006868676666656464636362616160605F2F
:101880005F5E5E5D5D5C5C5B5B5A5A5959585857A8
:101890005756565555555454535352525251515010
:1018A00050504F4F4F4E4E4D4D4D4C4C4C4B4B4B63
:1018B0004A4A4A49494948484847474747464646A9
:1018C00045454544444444434343434242424241E4
:1018D0004141002B26D4770021D01CB54FEA3707B1
:1018E00003B44FF010004FF010014FF000000FBC98
:1018F000BDE810400BF1010BBBF1010F08BF5FEA1F
:10190000170722BF12F1010211F101014FF000414E
:1019100043F1000300F0004043EA00007047F9D3B0
:101920005708DAE746EA064613F1400F4FEA164633
:101930001FDD13F1200FDFBF16430A4600212033BD
:101940005B42C8D0C3F1200746EA064602FA07F711
:101950004FEA164646EA0706C3F1200722FA03F2C9
:1019600001FA07F721FA03F14FF0000342EA0702F8
:10197000B1E746EA020646EA06464FEA164646EA56
:101980000106BCBF46EA0646360C4FF000034FF096
:1019900000024FF000019EE72DE9C048934630B4A5
:1019A00091E8380007C831EA400C48BF34EA430CDC
:1019B00003D5FFF7F2FDFFF78CFFF0BCBDE8008810
:1019C0002DE9C048934630B491E8380007C810F0BC
:1019D000804F08BF13F0804F03D100F005F8FFF7E8
:1019E00078FFF0BCBDE8008820F07F4780EA030064
:1019F00023F07F4C07EB0C03A3F57C5300F0004071
:101A0000A3F1FE0392F0000F00F0B38095F0000FF9
:101A100000F077802DE901494FEA11404FEA144662
:101A200021EA004800FB06FC24EA064708FB06F60C
:101A300007FB08F800FB07F718EB06484CEB164CC1
:101A40004FEA124B18EB07484FEA15464CEB17408C
:101A500022EA0B4E0BFB06FC25EA06470EFB06F6B8
:101A600007FB0EFE0BFB07F71EEB064E4CEB164C6E
:101A70004FF000061EEB074E4CEB174B18EB0B0814
:101A800040F1000018EB0E0B58EB000840F100008D
:101A90008F1A4FF000013CBFC943661B14BFB5EB62
:101AA000040C00213CBFC943F61B4FEA17444EEA21
:101AB0008E0E27EA04454FEA1C4704FB07622CEA16
:101AC000074C05FB07F70CFB05F604FB0CFC16EBBB
:101AD000074642EB174216EB0C4642EB1C421BEB4F
:101AE000060658EB0202414146EA9E0601D5BDE8D2
:101AF0000189B619524141EB0101A3F10103BDE88F
:101B000001894FEA14454FEA114724EA054621EAC4
:101B1000074C05FB07F406FB07F70CFB06F105FB7A
:101B20000CFC11EB074144EB17444FEA124711EB51
:101B30000C4144EB1C4422EA074C05FB07F206FB70
:101B400007F70CFB06F605FB0CFC16EB074642EB11
:101B5000174216EB0C4642EB1C456A1854F1000183
:101B600048BF7047B619524141EB0101A3F101038F
:101B7000704795F0000F37D04FEA11424FEA1447F3
:101B800021EA024624EA074C02FB07F106FB07F7AD
:101B90000CFB06F402FB0CFC14EB074441EB174171
:101BA0004FEA154714EB0C4441EB1C4125EA074C66
:101BB00002FB07F506FB07F70CFB06F602FB0CFC25
:101BC00016EB074645EB174516EB0C4645EB1C425A
:101BD000121951F1000148BF7047B619524141EB4B
:101BE0000101A3F1010370474FEA14454FEA114781
:101BF00024EA054621EA074C05FB07F106FB07F737
:101C00000CFB06F24FF0000605FB0CFC12EB074242
:101C100041EB174112EB0C4251EB1C4148BF70479E
:101C2000921841EB0101A3F10103704702480168DA
:101C3000491C016070470000040000200B48016847
:101C400041F00101016001688907FCD50021416074
:101C50000268074B1A400260816007490548086026
:101C600006494FF000600860704700000010024015
:101C7000FFFFF6FE00127A000000002008ED00E0F1
:101C800008480188C9070CD0018821F001010180B2
:101C900005480078002804D00448016881F4805188
:101CA00001607047100400401F0000200C08014034
:101CB00010B5104800880F49091D0988CAB20E499D
:101CC000030704D0887840F00100887010BD8006BA
:101CD000FCD50878401CC0B24B78984204D1887873
:101CE00040F00200887010BD044B0C781A55087043
:101CF00010BD0000003801402800002038090020F5
:101D0000490050EAC12018BF04204A0D18BF40F016
:101D1000010040F2FF72B2EB515F08BF40F00200D9
:101D2000012808BF0520704730380A2801D2012059
:101D3000704700207047000070B5044620780028E6
:101D400034D000220F211E4800F039FE607878B3AD
:101D500000221C4D0D21284600F031FEA07840B332
:101D600000220E21284600F02AFEE07830B300223F
:101D70000F21284600F023FE134D22790C2128461E
:101D800000F01DFE62790E21284600F018FEA279AF
:101D90000021284600F013FE0C4DE0792978884296
:101DA00003D000F071FBE079287070BD0122C9E713
:101DB00000E001E00122CCE70122D2E70122D7E7CF
:101DC0000008014000100140000C01401E000020EE
:101DD0001CB500200090019000F056FB6846FFF70C
:101DE000ABFF1CBD10B51848816941F403718161D6
:101DF000416821F4404141F400414160134C00220C
:101E00000121204600F0D0FD00220421204600F0F0
:101E1000CBFD002201210E4800F0C6FD0D4C012033
:101E200020600A2000F032FD206840F008002060A9
:101E300020680007FCD4206840F00400206020687F
:101E40004007FCD410BD0000001002400008014013
:101E5000000C01400824014010B50A21B0FBF1F24A
:101E600001FB120101EB410107220A2806D2124CA4
:101E700023688A4093431343236006E00E4B1B1FE5
:101E80001C688A40944314431C600B4A00211C3296
:101E9000116009492431086007480838016841F099
:101EA000010101600448103801688907FCD5024827
:101EB0003C30006880B210BD1024014070B5064669
:101EC000002500243046FFF7C7FF0544641CE4B238
:101ED000082CF7D3022000EBD500C0F38F0070BDB3
:101EE00070B505460E4614460120FFF7E7FF208037
:101EF0000420FFF7E3FF28800920FFF7DFFF308091
:101F000070BD00003EB53249CA6800920A6901926C
:101F1000496902912F4940F2FF320B7800EB8001B2
:101F20009B1E072B4FD2DFE803F004101B26313B2A
:101F30004500BDF90010BDF9022008446FF01301FF
:101F400000F060FBADF800003DE0BDF90220BDF9F6
:101F500000101044502200F055FBADF8020032E0B2
:101F60009DF804109DF805200844002100F07AFC3B
:101F70008DF8040027E09DF805209DF8041010441A
:101F8000642200F06FFC8DF805001CE0BDF806002F
:101F900000EB4100002100F065FCADF8060012E006
:101FA000BDF8080000EB4100002100F05BFCADF83B
:101FB000080008E0BDF80A0000EB4100002100F035
:101FC00051FCADF80A00684600F078F93EBD00000B
:101FD000340000200800002005490020C8708870E7
:101FE000487008700861C8608860486070470000E9
:101FF0004C00002003480078022801D301207047DC
:10200000002070470800002070B5344EB17A01F00E
:102010000100C1F340023146B1F900300C31002813
:1020200005D0B1F90240A34201DD012500E0002501
:102030002B4C257028B1B1F90050AB4201DA0123D5
:1020400000E000236370254B9B7820B14D79AB42B3
:1020500001D9012500E00025A57020B1087983424F
:1020600001D2012000E00020E0702AB130894B89C4
:10207000984201D2012000E0002020712AB1B388EB
:10208000CD88AB4201D9012300E0002363712AB15E
:10209000F28809898A4201D2012100E00021A17160
:1020A000E3710F490A688A604A68CA600B4D1835A7
:1020B000297800F0EDFF0A4E0836307169786079B2
:1020C00000F0E6FF7071A978A07900F0E1FFB0712F
:1020D000E978E07900F0DCFFF07170BD3400002099
:1020E0000900002010B512481921018037218170A4
:1020F0004FF4967181804FF4FA72C28002810022FF
:10210000827212230C300380202343802823037122
:10211000502343714B00C38001814FF4AF71418163
:1021200004480270FFF758FFBDE81040FFF76CBF8E
:10213000340000200800002000B5FFF75BFF0749CE
:1021400030B10878082806D0401CC0B2087000BD25
:102150000220087000BD0220F8E7000008000020FF
:1021600000B5FFF747FF064910B10020087000BD19
:10217000087810B10020087000BD0120FBE70000C6
:102180000800002070B50D461446002804D02946EA
:10219000204600F0F5FB08B1002070BD281B00F2BE
:1021A000E7304FF47A71B0FBF1F080B270BD0000FF
:1021B00070B50646134D00242878002805D0304617
:1021C000696800F0DDFB00B12C70687828B13046FA
:1021D000A96800F0D5FB00B16C70A87828B1304632
:1021E000E96800F0CDFB00B1AC70E87828B130466A
:1021F000296900F0C5FB00B1EC70BDE87040FFF745
:1022000003BF00004C0000202DE9F047054688463A
:102210001746994621A12846FEF794FA214C98B119
:1022200021A12846FEF78EFA4FF4E16680B11FA186
:102230002846FEF787FA78B11EA12846FEF782FAF3
:1022400070B10020BDE8F087164D241D78260BE004
:10225000651C144C083407E0A51C124C0C3403E038
:10226000E51C104C10343C26B8F1000F04D00FB11F
:10227000B74201D90020E5E785F80080B8F1000FEA
:102280000AD007EB4700C0EBC71009EBC000206085
:10229000FFF7BAFE0120D5E70020F8E750554D5072
:1022A000000000004C00002046414E004C414D50C3
:1022B00000000000424545500000000010B5B0F994
:1022C000002012F1140F18DBB0F90210502914DCB1
:1022D0008A4212DC017964290FD84279642A0CD829
:1022E00091420AD8C1884FF48062914205D2018997
:1022F000914202D24189914201D3002010BD05498B
:102300000268CA6042680A6180684861FFF77CFE23
:10231000012010BD340000200648816944F2040207
:10232000114381610448016821F47F6141F49661A1
:1023300001607047001002400408014070B53A483F
:10234000816941F01D0181613848416821F0E061F7
:1023500041F000714160364C00220C21204600F013
:102360002EFB00220E21204600F029FB0022114600
:10237000204600F024FB2F4D01220F21284600F0BB
:102380001EFB2D4E01220D21304600F018FB0122CC
:102390000E21304600F013FB01220F21304600F0E1
:1023A0000EFB02220C21204600F000FB02220E212F
:1023B000204600F0FBFA02220021204600F0F6FA47
:1023C00002220F21284600F0F1FA02220D213046A8
:1023D00000F0ECFA02220E21304600F0E7FA022269
:1023E0000F21304600F0E2FA01220721204600F0DA
:1023F000E6FA01220621204600F0E1FA0822072130
:10240000204600F0D1FA08220621204600F0CCFA3E
:1024100008220321204600F0C7FA2046BDE870409C
:102420000122032100F0CBBA00100240000001405D
:10243000000C0140000801400010014010B50E489A
:10244000C16941F00201C1610C49002008800B49BB
:102450000C310880091D088009490870094C0022C8
:102460000C21204600F0ABFA20460222BDE81040C5
:102470000C2100F09BBA0000001002400004004054
:102480001F0000200008014030B415490A7890422E
:102490001BD00870134A134C0021131F103CB0B11D
:1024A0001148124D0068B0FBF5F00E4D401E183576
:1024B0002880FA202D1D28800120151D28801180DC
:1024C00018800B4A41071160208030BC7047218082
:1024D00019801180002230BC0C21064800F06FBA30
:1024E0001F000020100400400000002040420F00A8
:1024F00000E100E00008014010B5254BDC78002C1D
:1025000041D09B789A4240D1224AB0F90030B2F9CA
:102510000040A34239D183789478A34235D183888F
:102520009488A34231D1C388D488A3422DD1038992
:102530001489A34229D1807A927A904225D11548F4
:10254000B1F900200C30B0F900309A421DD1B1F938
:102550000220B0F902309A4217D10A7903799A42DF
:1025600013D14A7943799A420FD1CA88C3889A42D3
:102570000BD10A8903899A4207D14989408981424E
:1025800003D1012010BD002010BD002010BD0000AF
:1025900024000020200900207CB529E0174C521CA3
:1025A000A3F14105192D05D83F3BDBB203EB8303B3
:1025B0001C4407E0303B092B04D8104C03EB830389
:1025C0008C341C4400236D46E65CEE545B1CDBB28D
:1025D000052BF9D300238DF80530094B009C03EB44
:1025E000C0130B441C60BDF804409C80891DC9B217
:1025F0001378002B01D07A29D0D37CBDB4350008E4
:1026000020010020884201DA08467047904201DD2F
:102610001046704700B2704701B50122694600209C
:1026200000F022FF08BD0000F8B500F0D5FD01461E
:1026300011B11AA000F0A1FB00251F4E1F4C26E08F
:102640009DF800100A2902D0207800BB13E0207802
:1026500070B9608860B13554311811F8011C0D292A
:1026600003D1401E80B260803554134800F0A6FBB1
:10267000658025700BE06088BF2803D2421C628011
:10268000315404E0012020700DA000F076FB684674
:1026900000F0AAFD0028D3D1F8BD00004552522C0D
:1026A000302C554152545F4552524F522C434F44A7
:1026B000453D25750D0A0000600000201A0000202D
:1026C0004552522C302C4C494E455F544F4F5F4C75
:1026D0004F4E470D0A000000082900D3001D704727
:1026E0002DE9F04F824689B0084600240027019763
:1026F0003BA1FDF751FF83460DF10C080DF10809D0
:102700003EE03D215846FDF74DFFB0B10770451C36
:1027100034A15846FEF716F8A0B1284600F062FA38
:102720000546FF2D01D0042C16D35A4651462EA043
:1027300000F023FB09B0BDE8F08F514631A000F056
:102740001CFBF7E701A9284600F06EFA98B951463C
:1027500031A000F012FBEDE704EB440008EB40066B
:10276000052259463046FDF7C2FF77712046641CAA
:10277000E4B209F800501AA10020FDF70DFF8346CE
:10278000BBF1000FBDD10CB1002514E051461DA0D6
:1027900000F0F3FACEE700F033FE0346019819F893
:1027A000051082B205EB450008EB4000FFF72CFD59
:1027B00068B16D1CEDB2A542EDD31F48FFF7BCFA1E
:1027C00051461EA000F0D9FA00F056FCB2E705EB26
:1027D000450008EB400251461CA000F0CEFAA9E7E4
:1027E0002C00000054544C004552522C25732C42AE
:1027F00041445F56414C55452C4649454C443D2586
:10280000730D0A004552522C25732C4D414C464FF6
:10281000524D45440D0A00004552522C25732C425E
:1028200041445F56414C55452C4649454C443D5426
:10283000544C0D0A000000001100002041434B2CB5
:1028400025732C4354524C0D0A0000004552522C63
:1028500025732C52414E47452C4649454C443D2555
:10286000730D0A00884201DA08467047904201DD84
:102870001046704780B2704703490A680B689B1A7C
:102880008342FBD3704700000400002000B50246DD
:1028900000F0A4F9014600F0A1F9401A80B290427C
:1028A000F9D300BD10B500F063F80122BDE8104077
:1028B0000021014800F083B8000801402DE9FC41E7
:1028C00006460F4600F054F8244C002211462046DC
:1028D00000F075F81420FFF7CFFF012200212046F9
:1028E00000F06DF81E20FFF7D1FF00F039F86421E9
:1028F000002000F015FE30B36421012000F010FE2E
:1029000008B36421002000F00BFEE0B100246D4606
:10291000281900F0DFFAC0B1641CE4B2052CF7D32B
:102920009DF800009DF801109DF802209DF80330ED
:1029300001441A4411449DF80420C9B2914206D0C2
:102940000020BDE8FC810020FBE70020F9E738709B
:102950009DF8020030800120F3E7000000080140EC
:1029600004220021014800F01FB8000000080140C7
:1029700006220021014800F019B8000000080140BB
:10298000401AC017401C704770B50C4615462146CA
:10299000FFF7A2FE6107C90E02680F238B409A431E
:1029A0008D402A43026070BDFFF7EEBFFFF7ECBF1A
:1029B000806801228A40104000D001207047012326
:1029C0008B40002A01D003617047436170470000CB
:1029D00003490320487008700020488070470000B9
:1029E0002000002070B5204D07212846FFF7E0FFAA
:1029F000044606212846FFF7DBFF08B1022100E06C
:102A000000210C430020194B002559788C420AD133
:102A100059884EF66022914201D21431598059886A
:102A2000282904D00BE05C705D80002070BD1C7014
:102A300014B1012C02D002E0042000E003204FF486
:102A40002F76B14202D1022C00D10220032CEDD10D
:102A50001A78032AEAD0022A02D1B14200D2012018
:102A6000032119705D8070BD000C01402000002022
:102A700088B0002007900690059004900390029083
:102A8000FFF7DCF8FFF75AFCFFF7D8FC00F0BEFCBC
:102A9000FFF728FBFFF79CF9FFF7A4F9FFF702FF08
:102AA000FFF796FF00F0FCFA00F0D0F83EA000F02F
:102AB00064F945494FF0005008604FF4FA76434CF2
:102AC000B500FFF7B1FD642102A800F08BFC30B126
:102AD00000F096FCFFF76CFB3D48FFF72DF9142141
:102AE00007A800F07FFCD8B1FFF77CFF012806D0D3
:102AF000022807D0032808D004280AD00DE0FFF7E9
:102B00001BFB0AE0FFF72CFB07E00120FFF7FAF9B7
:102B100003E04FF0FF30FFF7F5F92D48FFF70CF910
:102B2000314606A800F05EFC70B1284AA11D0832AB
:102B3000201DFFF7D5F9A07A40F00200A072FFF740
:102B400063FA2348FFF7F8F8294605A800F04AFC85
:102B500098B1694601A8FFF7B1FE48B1BDF804007D
:102B600020809DF80000A070A07A40F00100A072C3
:102B7000FFF74AFA1648FFF7DFF8FA2104A800F039
:102B800031FC28B1134814490278104800F0A4F829
:102B9000294603A800F026FC002892D00C4A0E49D2
:102BA0000A4800F0AFFA8CE7536D617274416772A6
:102BB000692056312E312E30204020307830383088
:102BC00030303030300D0A0000E100E034000020E9
:102BD0001100002008000020400000204FF080403D
:102BE000808C704710B504460BA12046FDF7AAFD66
:102BF00058B10BA12046FDF7A5FD40B109A1204623
:102C0000FDF7A0FD28B1FF2010BD002010BD012060
:102C100010BD022010BD00004155544F00000000BF
:102C20004F4646004F4E000038B505460C460A2276
:102C300069462846FDF778FC2060287810B1009896
:102C4000007808B1002038BD012038BD70B51B48A0
:102C5000816941F008018161C16941F48001C1616C
:102C60001748016841F47F4101601649242008801B
:102C70001449B420183108802520091D0880114806
:102C80000124001F0480051529460F48FDF70DFD9E
:102C9000FF2229460D48FDF700FD0D48FF21417038
:102CA00004700021C17000240A4D285DFFF7B4FCB8
:102CB000641CE4B2172CF8D370BD00000010024071
:102CC000040C014004580040200100202005002091
:102CD00024000020723600082DE9F05F81468A4604
:102CE00093465A4651464846FFF706FC00282FD126
:102CF0005A465146484600F02DF90024154F07F575
:102D0000806807EBC41508EBC41628783178884230
:102D100005D1314628468022FDF74EFC68B10021DE
:102D2000204600F019F829468022402000F09CFB44
:102D3000294630468022FDF76BFC641CE4B2082C67
:102D4000DFD35A4651464846BDE8F05F00F0EAB886
:102D5000BDE8F09F2001002010B50C4640F0B00007
:102D6000FFF75AFC04F00F00FFF756FC102040EA72
:102D70001410BDE81040FFF74FBC0FB430B5D1B010
:102D800055AB4FF4A075294601A8549AFDF772FA85
:102D900004460020009020000BD4AC4200DB6C1EE7
:102DA000002301AD03E0E85C00F0A2F95B1CA34244
:102DB000F9DB51B030BC5DF814FB000070B529A1FF
:102DC000FDF7EAFB064627A10020FDF7E5FB0546D7
:102DD00025A10020FDF7E0FB044686B17DB123A1CB
:102DE0003046FDF7AFFC78B121A13046FDF7AAFCD3
:102DF000B8B121A13046FDF7A5FCF8B124E0BDE84B
:102E000070401EA0FFF7B9BF2CB121462846BDE88F
:102E1000704000F0FDB92946BDE870401CA0FFF7E6
:102E2000ACBF2CB121462846BDE87040FFF758BC26
:102E30002946BDE8704016A0FFF79FBF24B119A135
:102E40002046FDF77FFC28B12946BDE8704017A059
:102E5000FFF793BF29461BA0FFF78FFFBDE8704027
:102E600000F00AB92C000000000000005345540097
:102E70004354524C00000000474554004552522C28
:102E8000302C4D414C464F524D45440D0A00000038
:102E90004552522C25732C4D414C464F524D4544C2
:102EA0000D0A000053544154450000004552522C75
:102EB00025732C554E4B4E4F574E5F434D440D0AD4
:102EC0000000000041434B2C25732C4745540D0A4C
:102ED000000000002DE9F041074600240025642190
:102EE000012000F01DFBC8B1FFF778FE0646642103
:102EF000002000F015FB98B16006040EFFF76EFE8F
:102F0000801B80B22D2801D944F001046D1CEDB264
:102F1000082DE4D33C700120BDE8F0810020FBE7E0
:102F20000020F9E710B5094B9A70094A046814604B
:102F300044685460806890600868D0604868106198
:102F4000886850610120D87010BD00002400002066
:102F50002009002070B586B005460C4616464FF491
:102F60007F713248FDF7A1FB76B3B4F90230B4F9B2
:102F700000202FA16846FDF797F900216A46084610
:102F8000FFF70AFB637922792BA16846FDF78CF9DC
:102F90006A4600210220FFF7FFFA2389E28828A170
:102FA0006846FDF781F96A4600210420FFF7F4FA2C
:102FB000628925A16846FDF777F96A460021062057
:102FC000FFF7EAFA06B070BDAB78B5F900201FA193
:102FD0006846FDF769F900216A460846FFF7DCFA02
:102FE000AA881CA16846FDF75FF96A460021022005
:102FF000FFF7D2FA2B89EA8818A16846FDF754F941
:103000006A4600210420FFF7C7FAAA7A032A0AD0E9
:1030100015A316A16846FDF747F96A460021062068
:10302000FFF7BAFACEE713A3F3E700002001002070
:10303000543A25642D256400483A25752D257500E0
:10304000412575204C2575005325750054256420B5
:103050004825750041495225750000004C25752012
:10306000534F494C257500002D2D00005625642036
:10307000257300004F4B0000024A0349034800F04B
:1030800041B8000011000020400000203400002062
:10309000022903D0012900D1002070470120704788
:1030A00070B50F4800684FF49621B0FBF1F4B0FB07
:1030B000F1F201FB12000001B0FBF1F5FFF72CF972
:1030C000084945EA04100880091D42F22C000880D6
:1030D0000549202008700549C1F8000170BD0000B5
:1030E000000000200838014025E400E004E000E092
:1030F00003490A881206FCD50149091D088070475A
:10310000003801402DE9F04F9DB007460D461446AA
:1031100000F076F980462D4E4246F0783169FFF78F
:1031200031F88146B0784246F168FFF72BF88246C5
:1031300070784246B168FFF725F8834630784246FA
:103140007168FFF71FF8F178B278CDE9182ACDE958
:103150001A1971783278CDE9161BCDE914201C4973
:103160004868421C4A60E179A279CDE91208CDE9AC
:10317000102162792079E178A378CDE90C31CDE98D
:103180000E0260782178BA7A6B89CDE90832CDE9F0
:103190000A102889EA8869792B79CDE90431CDE9CB
:1031A0000620B5F90200B5F900203989FB88CDE980
:1031B0000220CDE90031BB88BA78B7F90010054884
:1031C000FFF7DBFD1DB0BDE8F08F00004C000020D4
:1031D00028000020603700080249887800228A70A1
:1031E000704700002800002007490A784B789A426F
:1031F00001D100207047054A4B78D25C02704878B4
:10320000401C487001207047280000203809002029
:103210007FB506460A464648016801914168029119
:1032200080680390002443A11046FDF7B5F90546D8
:1032300068E03D212846FDF7B5F9002836D0002189
:1032400000F8011B6946FFF7EFFC002833D03AA1D4
:103250002846FDF777FA002833D039A12846FDF734
:1032600071FA002831D038A12846FDF76BFA002802
:103270002FD037A12846FDF765FA00282DD036A1BA
:103280002846FDF75FFA00282BD035A12846FDF728
:1032900059FA002829D034A12846FDF753FA40B343
:1032A0002A46314632A0FFF768FD7FBD314638A07F
:1032B000FFF763FD7FBD2A4631463AA0FFF75DFD6B
:1032C0007FBD0098ADF8040016E00098ADF8060048
:1032D00012E000988DF808000EE000988DF80900C3
:1032E0000AE00098ADF80A0006E00098ADF80C007E
:1032F00002E00098ADF80E0001240EA10020FDF7B9
:103300004BF90546002D94D16CB101A8FEF7D6FF0C
:1033100048B12B48FEF710FD31462AA0FFF72DFDDE
:10332000FFF7AAFE7FBD31462AA0FFF726FD7FBD2D
:10333000400000202C000000544D494E00000000C9
:10334000544D415800000000484D494E0000000017
:10335000484D4158000000004149524D415800007D
:103360004C4D494E00000000534D494E00000000F6
:103370004552522C25732C554E4B4E4F574E5F4B9A
:1033800045592C4649454C443D25730D0A00000023
:103390004552522C25732C4D414C464F524D4544BD
:1033A0000D0A00004552522C25732C4241445F56B1
:1033B000414C55452C4649454C443D25730D0A006A
:1033C0001100002041434B2C25732C5345540D0A0A
:1033D000000000004552522C25732C52414E4745A7
:1033E0000D0A0000054A12680368D31A8B4202D303
:1033F0000260012070470020704700000400002098
:10340000014800687047000004000020124801686D
:103410004FF47A70B1FBF0F0401EB0F1807F09D21A
:103420004FF0E02250610D4BF020187000209061A9
:10343000072010610A48C26942F00102C2610948CE
:10344000B1FBF0F1491E000601854FF6FF71818541
:1034500001210180704700000000002023ED00E002
:103460000010024040420F002DE9F04704460D468F
:10347000164622480078002802D10CB1BDE8F0873A
:103480001F4F388840F480703880DFF87490012135
:1034900009F11409484600F035F880B1A9F1040893
:1034A0007820A8F800000221484600F02BF840B12F
:1034B00009F104000088A8F8004000240DE0002075
:1034C000DCE70020DAE78021484600F01BF888B1ED
:1034D000285DA8F80000641CA4B2B442F3D3042110
:1034E000484600F00FF838B1388840F40070388052
:1034F0000120C3E70020C1E70020BFE7240000202F
:1035000000580040054A03880B4201D1521EFAD1EF
:103510000AB101207047002070470000400D0300F1
:103520002DE9F04105460C46FFF758FB0646094FCA
:1035300008E0FFF753FB801B80B2A04202D90020B5
:10354000BDE8F08100213846FFF732FAA842F0D1F9
:103550000120F5E70008014010B500290AD00878DD
:10356000002807D005487844FDF7ECF8002801D082
:10357000002010BD0248784410BD00002203000066
:103580001A03000010B500290AD00878002807D0D7
:1035900005487844FDF7D6F8002801D0002010BD7A
:1035A0000248784410BD000006040000FE0300003D
:1035B000FDF708BD000000000000005F00007E1164
:1035C00011117E7F494949363E414141227F4141A7
:1035D000221C7F494949417F090909013E41494966
:1035E0007A7F0808087F41417F41412040413F01E7
:1035F0007F081422417F404040407F020C027F7FC1
:103600000408107F3E4141413E7F090909063E41C1
:1036100051215E7F09192946464949493101017FF7
:1036200001013F4040403F1F2040201F7F201820C5
:103630007F6314081463030478040361514945430C
:103640003E5149453E00427F40004261514946217A
:1036500041454B311814127F1027454545393C4AE6
:103660004949300171090503364949493606494936
:10367000291EAE2002A1C8817FA6A83FD300D58015
:10368000D9F1DA12DB408D14AF040000080000000D
:103690000000000002000100001000000000000017
:1036A000000000003031323334353637383941428A
:1036B0004344454640305800303132333435363794
:1036C000383961626364656640307800024000000A
:1036D000000000A00000000005400000000000C83D
:1036E000000000000C4000000000409C00000000B2
:1036F000194000000020BCBE000000003440000063
:10370000BFC91B8E00000004B5400000504BCFD055
:103710006607E2CF010000006C4100003E8251AA22
:10372000DFEEA73401000000D9420000DCB5A0E2C2
:103730003A301F97FFFFFFFFB4450000FD25A0C8EA
:10374000E9A3C14FFFFFFFFFFF3F00000000008023
:1037500000000000FF3F00000000008000000000AB
:10376000444154412C543D25642C483D25752C4141
:1037700049523D25752C4C494748543D25752C53DD
:103780004F494C3D25752C544D494E3D25642C54D4
:103790004D41583D25642C484D494E3D25752C48DA
:1037A0004D41583D25752C4149524D41583D257597
:1037B0002C4C4D494E3D25752C534D494E3D25759C
:1037C0002C56414C49443D25752C4C4544313D25F2
:1037D000752C4C4544323D25752C4C4544333D25D4
:1037E000752C4C4544343D25752C50554D503D2588
:1037F000752C46414E3D25752C4C414D503D25754F
:103800002C424545503D25752C5345513D256C7541
:103810002C555054494D453D256C752C504D4F4409
:10382000453D25752C5052454D3D25752C464D4F37
:1038300044453D25752C4652454D3D25752C4C4142
:103840004D504D4F44453D25752C4C52454D3D2521
:10385000752C424D4F44453D25752C4252454D3DFA
:1038600025750D0A00000000B43900080000002092
:103870003400000028010008E83900083400002066
:103880006410000044010008100100004300000023
:10389000F8FFFFFF00404040404040404040414171
:1038A0004141414040404040404040404040404015
:1038B00040404040400502020202020202020202AF
:1038C00002020202022020202020202020202002AC
:1038D000020202020202909090909090101010103C
:1038E00010101010101010101010101010101010D8
:1038F000020202020202888888888888080808086C
:103900000808080808080808080808080808080837
:10391000020202024000000000000000000000005F
:103920000000000000000000000000000000000097
:103930000000000000000000000000000000000087
:103940000000000000000000000000000000000077
:103950000000000000000000000000000000000067
:103960000000000000000000000000000000000057
:103970000000000000000000000000000000000047
:103980000000000000000000000000000000000037
:1039900000000000000000001C00000043000000C8
:1039A000F8FFFFFF0C0000000E0000000F000000F9
:1039B0002E00000000127A0000000000000000004D
:1039C00000000000000000000000000000000000F7
:1039D00000000000000000000000000000000000E7
:0839E0000000000000000000DF
:0400000508000235B8
:00000001FF
