:020000040800F2
:1000000090080020350200083D0200083F02000869
:1000100041020008430200084502000800000000F9
:10002000000000000000000000000000470200087F
:1000300049020008000000004B020008891B00086C
:100040004F0200084F0200084F0200084F0200084C
:100050004F0200084F0200084F0200084F0200083C
:100060004F0200084F0200084F0200084F0200082C
:100070004F0200084F0200084F0200084F0200081C
:100080004F0200084F0200084F0200084F0200080C
:100090004F0200084F0200084F0200084F020008FC
:1000A0004F0200084F0200084F0200084F020008EC
:1000B0004F0200084F0200084F0200084F020008DC
:1000C0004F0200084F0200084F0200084F020008CC
:1000D0004F020008651C00084F0200084F0200088C
:1000E0004F0200084F0200084F02000800F002F81B
:1000F00000F090F80AA090E8000C82448344AAF132
:100100000107DA4501D100F085F8AFF2090EBAE82F
:100110000F0013F0010F18BFFB1A43F0010318473B
:10012000DC340000FC340000103A24BF78C878C1E9
:10013000FAD8520724BF30C830C144BF04680C60ED
:10014000704700000023002400250026103A28BF35
:1001500078C1FBD8520728BF30C148BF0B60704739
:100160006E2900F05C83702900F0A784662903F0F3
:10017000E980652903F0E680672903F0E3806129BF
:10018000AFF3008003681B0A28BF41F08001692992
:1001900000F0A080642900F09D80752900F09A800D
:1001A0006F2900F03584782900F07384E92900F084
:1001B000CF83E42900F0CC83F52900F0C983EF292F
:1001C00000F03284F82900F072840368DB0928BF4C
:1001D00041F08001632900F07387732900F078876C
:1001E000E32900F08387F32900F088870020704717
:1001F0001FB500F005FD04000020002103F076F893
:10020000401C60600020002103F086F8E0601FBD04
:1002100010B510BD00F0C2FF1146FFF7E9FF02F074
:100220001FFB01F08FF803B4FFF7F2FF03BC01F0EE
:100230008FF800000948804709480047FEE7FEE7BD
:10024000FEE7FEE7FEE7FEE7FEE7FEE7FEE7FEE786
:1002500004480549054A064B70470000151C000874
:10026000ED0000089002002090080020900400207B
:10027000900400207CB51D4616460C00009001D06D
:100280002044401E074B7B442A4669460190304675
:1002900000F0DFFA05461CB10020694600F0ECFAD8
:1002A00028467CBDF90500000FB41CB5084B06AA12
:1002B0007B4469460090059800F0CBFA0446002084
:1002C000694600F0D9FA20461CBC5DF814FB00001A
:1002D000C50500002DE9F041064600241068752987
:1002E000314616A510D000F006FA002802DA404286
:1002F00013A507E031688A0701D512A502E0490776
:1003000004D511A5012401E000F0FEF900210A2224
:1003100006F1240709E0B0FBF2FCB0FBF2F302FBAC
:100320001C00303078541846491C0028F3D123466D
:100330002A463046BDE8F04100F018BA000000003F
:100340002D0000002B000000200000002DE9F05FD0
:10035000894604464FF0000ADFF874B1FB44C0F848
:1003600020A02046E1688847002874D0252806D0C0
:10037000D4E901219047206A401C2062F1E7002661
:100380005F462046E16888472028054607DB312D77
:1003900005D2781910F8200C08B10643F1E7B00730
:1003A00001D526F00406C4F81CA00027C4F818A044
:1003B0002A2D09D0284601F091FC38B304EB8708B8
:1003C000303DC8F8185019E059F8041B204604EBDA
:1003D00087029161E1688847012F054618D1E069DD
:1003E000002820DA26F020061DE0D8F8180000EBDF
:1003F000800005EB40003038C8F818002046E1685E
:100400008847054601F06AFC0028EED1012F0AD08A
:100410002E2D08D12046E16888477F1C0546022F13
:1004200046F02006C4DBA069002803DA404246F00B
:100430000106A061F00701D026F010066C2D0BD04C
:10044000682D09D04C2D39D06A2D35D0742D35D07A
:100450007A2D33D016E038E0E1682F4620468847F1
:10046000B842054609D16C2F26D04FF48060E16870
:10047000064320468847054604E06C2F1AD04FF407
:10048000807006430DB3A5F14100192802D820352C
:1004900046F400664A462946204626604E46FFF747
:1004A0005FFE80B101280BD0F61D26F0070000F199
:1004B000080956E74020E4E78020D8E70020D6E787
:1004C00006F104094DE7284652E7206ABDE8F09F8F
:1004D000BD3000002DE9F04791460F4680460446A6
:1004E000002614F8015B2DB100F0D2F80068405DE1
:1004F000C007F6D12B2D02D02D2D18D0641E4A46F0
:100500003946204600F0E4FA27B13968A14201D10A
:10051000C7F800804FF0020471050BD54042002857
:1005200003DD00F0BDF80460A007BDE8F08746F4E5
:100530008066E4E70028F8DA00F0B2F804606FF0B3
:100540000040F2E7014A00F013BB00003C0000202D
:10055000401ECAB210F8011F8A4202D00029F9D108
:10056000002070474FF0000200B5134694469646AF
:10057000203922BFA0E80C50A0E80C50B1F12001B6
:10058000BFF4F7AF090728BFA0E80C5048BF0CC064
:100590005DF804EB890028BF40F8042B08BF7047C2
:1005A00048BF20F8022B11F0804F18BF00F8012B34
:1005B000704710B5044610F0030F08BF11F0030F89
:1005C00040F015804FF0013E121FC0F20E8051F82E
:1005D000043BA3EB0E0C2CEA030C1CEACE1C08BF58
:1005E00040F8043BF0D0A1F1040102F10402521ED4
:1005F00008DB11F8013B002B00F8013BF7D1114655
:1006000000F0D8FA204610BD4FF0013C50F8042B02
:1006100051F8043B9A4221D1A2EB0C03934313EA15
:10062000CC1317D150F8042B51F8043B9A4215D142
:10063000A2EB0C03934313EACC130BD150F8042B19
:1006400051F8043B9A4209D1A2EB0C03934313EAFD
:10065000CC13DBD04FF00000704700BFD01A01BAB6
:10066000B1FA81F101F0180122FA01F0CB40C1F199
:100670002001DBB2C0B2C01A2CFA01F3D11A9143A7
:1006800011EAC311E6D17047704770477047000008
:1006900010B500F0B5FA001D10BD00BF512C0000D0
:1006A000004870472C02002070B504468569006838
:1006B000C10601D5302600E02026C00707D070BD56
:1006C000D4E9012130469047206A401C20626D1E0B
:1006D000F6D570BD70B5044685690078C00707D1AE
:1006E00070BDD4E9012120209047206A401C20627F
:1006F0006D1EF6D570BD09684A0501D540B2704738
:10070000C905FCD500B2704709684A0501D5C0B2D9
:100710007047C905FCD580B2704770B50C460546D8
:10072000012A05D02878800600D5EA69002302E076
:10073000012305E05B1C934202D2E05C0028F9D162
:10074000A869E618C01AA861286A184428622846D1
:10075000FFF7AAFF04E0D5E9012114F8010B904747
:10076000B442F8D32846FFF7B5FF70BD2DE9F04736
:100770000D4699469246044600F124080168880611
:1007800004D5E06921F01001216000E00120A842B9
:1007900001DD471B00E00027A1697A1902EB09007F
:1007A000081AA0612078C00602D42046FFF77CFF1B
:1007B000002608E0D4E901211AF806009047206AD3
:1007C000401C761C20624E45F4DB2078C0060AD51A
:1007D0002046FFF769FF06E0D4E901213020904769
:1007E000206A401C2062381EA7F10107F4DC07E0F4
:1007F000D4E9012118F805009047206A401C2062C6
:10080000281EA5F10105F3DC2046FFF763FF2078E1
:10081000000602D50220BDE8F0870120FBE7116841
:100820000268006A530501D508700AE0D30501D5B6
:10083000088006E0130603D5C217C1E9000200E0F4
:10084000086001207047000001694A1C02610878B5
:10085000704700B58FB0CDE9013100210591054900
:100860007944CDE9031011466846FFF76FFD0FB0DC
:1008700000BD0000E5FFFFFF0A6802F8010B0A60F7
:100880007047D1E900239A4202D2531C0B601070CA
:10089000704700002DE9FF5F15468A460446DFF8E1
:1008A000AC80F8440027D8E900103E46CDE900109E
:1008B00010E03AF816106A4602A800F031FC411C1C
:1008C00007D02178890603D5E269391891420DD8FD
:1008D0000744761C2078800602D5E069B84205DD21
:1008E000AE42E6DB3AF816000028E2D1A069C01B50
:1008F000A0612046FFF7D8FED8E90010CDE900102E
:10090000002017E03AF818106A4602A800F008FC28
:10091000B0F1FF3F81460BD000250DF1080B05E03B
:10092000D4E901211BF8050090476D1C4D45F7D314
:1009300008F10100B0428046E4DB206A38442062BE
:100940002046FFF7C7FEBDE8FF9F00008A2B00008E
:100950002DE9F0418046D21D22F007020025D2E9A0
:100960000002F52915A614D0011E72F1000106DA65
:100970000023D0EB030063EB020211A608E0D8F8D5
:1009800000108B0701D50FA602E0490701D50EA67E
:1009900001251146002408F1240704E000F034F991
:1009A00030323A55641C50EA0102F7D12B463246E8
:1009B00021464046BDE8F041FFF7D8BE00000000E8
:1009C0002D0000002B0000002000000030B40021AA
:1009D00000F1240408E002F00705D208303542EAAD
:1009E0004372DB086554491C52EA0305F3D10468DD
:1009F000002310A2250708D504F020040C4304D0DE
:100A0000C46901230CA2641EC46130BCFFF7AEBEF2
:100A100010B5044621461068FFF776FE02462046D0
:100A2000BDE810400023D1E7D21D22F00701D1E933
:100A30000023CBE70000000030000000F0B40D46BA
:100A40000188090502D5214C7C4402E01F4C7C44FE
:100A50000E34002100F1240608E002F00F0712090D
:100A6000E75D42EA03721B097754491C52EA030707
:100A7000F3D102780023120704D5702D06D009B1F6
:100A8000022311342246F0BCFFF770BE012310345C
:100A9000F8E770B504460D4621461068FFF734FEAE
:100AA000024629462046BDE870400023C6E7D21D15
:100AB00022F00703D3E90023C0E70368126843F07C
:100AC000200303600823C3610023B7E7EC2900007B
:100AD0002DE9F05F824615468B4600270AF1010496
:100AE000B9460078302801D09DB113E014F8010B0D
:100AF0000127782803D0582801D045B10AE00DB16C
:100B0000102D07D1002714F8010B102502E008254D
:100B100000E00A250026B0460EE005FB080005FBB4
:100B200006F101271FFA80F801EB1046B6F5803F69
:100B300000D3B94614F8010B294600F0E3FA002867
:100B4000EBDABBF1000F05D00FB1641E00E0544694
:100B5000CBF80040B9F1000F06D0FFF7A1FD02214C
:100B60000160C81EBDE8F09F48EA0640FAE70000B1
:100B70002DE9F04115460E46040002D12C6804B957
:100B80000BA4204600F0FCFA0444207870B12746FC
:100B90003146384600F0E4FA0444207810B10020D1
:100BA00004F8010B38462C60BDE8F0810027F9E716
:100BB000000000004FF000020429C0F0128010F085
:100BC000030C3FF4D1ACCCF1040CBCF1020F18BF04
:100BD00000F8012BA8BF20F8022BA1EB0C01FFF7B6
:100BE000C3BC5FEAC17C24BF00F8012B00F8012BD5
:100BF00048BF00F8012B7047004870472C020020C6
:100C0000004870474C02002030B5B0F10A024FEAAC
:100C1000900E71F100034EEA817EB0EB0E0061EBA5
:100C200091014FEA101E4EEA017E10EB0E0041EBDF
:100C300011114FEA102E4EEA016E10EB0E0041EB3F
:100C400011214FEA104E4EEA014E10EB0E0041EB1F
:100C50001141401841F100014FEAD00040EA4170D3
:100C60004FEAD10110EB80054FEA810444EA907409
:100C700044EB01046D1944EB0404521BA3414FF0F3
:100C8000000348BF0A3200D530BD401C41F10001CD
:100C900030BD70472DE9FF4F0C461E464FF0FF3721
:100CA0008BB0D2E90001DDF860800A908A46C1F37A
:100CB0000A5505B93D46002108464FF00000BAF13B
:100CC000000F00F4400005DA00EB80004FF4400113
:100CD00001EA50004FEA9059B9F1010F00DDB94621
:100CE0000A9850EA4A000ED044F61050A5F2FF359B
:100CF00045432F14B8F1000F1ED07542291E1EDD8A
:100D0000C9F100021CE0B8F1010F4FF0000001D062
:100D1000302103E0F24305E02154401CB042FBDBEC
:100D200030460022002121540B99C1F80880C1E906
:100D300000200FB0BDE8F08FBD1B6D1CDEE74A46FA
:100D400000DA694206A800F08FFA06AB93E80700C4
:100D500003AB83E8070050460A9900F000FB8DE8DA
:100D60000700A0F500501F3800900398002D09DD02
:100D700042F21F014A46084403A90390684600F066
:100D80005FFD08E0A0F500504A461F3803A9039014
:100D9000684600F069FD8DE807000004000C03D0F0
:100DA0004FF0FF30410800E01046B8F1000F03D0CB
:100DB0000022009215461EE0751E05D4FFF724FFA1
:100DC000303262556D1EF9D5B3460122084302D078
:100DD00000227F1C04E02078302801D100227F1EF1
:100DE000002A099786D01DE0112D07DAFFF70CFFC6
:100DF000303262556D1C50EA0102F5D1084302D031
:100E00000098C8B10EE00021681E05E0235C625C1A
:100E100063542254401E491C8142F7DBAB46A81B99
:100E2000401E0990002004F80B000B98099AC0F8A6
:100E30000880C0E9002B7CE711264FF0000859E735
:100E40002DE9F04F88460446D21D22F0070191B0EB
:100E5000D1E90001CDE90A0100F02CFF02460B9810
:100E6000C00F01D02D2007E02068810701D52B207D
:100E700002E0202101EAC000032A099001D0072ADC
:100E800005DB03464146204600F0AEF90BE1207831
:100E9000800601D5E06900E00620B8F1650F8146C3
:100EA00006D0B8F1660F18D0B8F1670F70D131E0F5
:100EB0000020B9F1110F009001DB112301E009F1CD
:100EC00001030AAA01A90CA8FFF7E4FEDDE90C70F2
:100ED000002609F10105834647E001204B460090BA
:100EE0004FF000470AAA01A90CA8FFF7D3FEDDE9DD
:100EF0000DB00C995D46002610B909F101000D18DE
:100F0000B9EB050003D4C0F1FF3609F10105A5EBEB
:100F100009002BE0B9F1010F01DA4FF001090020BF
:100F2000B9F1110F0090484601DD112300E003469E
:100F30000AAA01A90CA8FFF7ADFEDDE90C704D4629
:100F400000268346207800070AD4AB4500DA5D46C8
:100F500001A8012D04DD411911F8011C302907D029
:100F60004F4502DA17F1040F04DA012082460FE040
:100F70006D1EEEE7002F02DCED1B3E4403E0781C03
:100F8000A84200DD7D1CB81B00F1010A4FF00047AC
:100F90002078000703D4AA4501DB4FF0FF3A002177
:100FA000B7F1004F0DF143088DF8431024D0022013
:100FB0002B23002F01DA7F422D230A21021EA0F1EC
:100FC000010000DC5FB197FBF1FC97FBF1F201FB44
:100FD0001C7C17460CF1300C08F801CDEEE7A8F1A7
:100FE000010003702188090501D5452100E0652134
:100FF000A0F1010800F8011C09980FA9A1EB08074E
:10100000FF1D00B10120411901EBEA70A1693844CC
:10101000081A401EA0612078C00602D42046FFF7BF
:1010200043FB099828B1D4E901219047206A401C6C
:1010300020622078C00622D52046FFF735FB1EE04F
:10104000002E04DBB34502DD01A8805D00E0302006
:10105000D4E901219047206A401C2062761CAAF145
:1010600001005FEA000A0AD1FFF7CAFDC068016803
:10107000405CD4E901219047206A401C2062281E70
:10108000A5F10105DCDC07E0D4E9012118F8010B2A
:101090009047206A401C2062381EA7F10107F3DC4C
:1010A0002046FFF717FB032011B043E610B5436954
:1010B00013B1AFF3008001E0FFF72FFB012010BD5B
:1010C000127800F124010A7000224A700122EDE733
:1010D00011684FF0FF32E9E710B5436913B1AFF380
:1010E000008001E0FFF7D6FB012010BD128800F15F
:1010F000240182840022C2840122EDE711684FF0AE
:10110000FF32E9E73A2800D2303820F02002412AA5
:1011100001D3A2F13700884201D34FF0FF3070476E
:1011200070B516460C460546FFF7B2FA036893F809
:101130000101012806D0FF2C0FD8185D68B10120ED
:101140002C7070BDD3F807013246214603F2071315
:1011500003442846BDE8704018474FF0FF3070BD8B
:1011600030B503461D781DB10A4603E0AC4201D1FB
:10117000181A30BD12F8014B002CF7D15B1CF1E7B7
:1011800030B503461D783DB10A4612F8014B1CB13B
:10119000AC42FAD15B1CF5E7181A30BD7546FFF773
:1011A0002BFDAE4605006946534620F007008546F4
:1011B00018B020B5FFF74CF8BDE820404FF000060E
:1011C0004FF000074FF000084FF0000B21F007012F
:1011D000AC46ACE8C009ACE8C009ACE8C009ACE872
:1011E000C0098D46704700002DE9F0411F460446B6
:1011F00003260168072A01F4006004DB08B116A584
:1012000005E016A503E008B115A500E015A521F03D
:1012100010002060A069C01EA0610FB1401EA06137
:101220002046FFF741FA4FB1D4E9012138469047F3
:10123000206A401C2062C01C206206E0206AFAE797
:10124000D4E9012115F8010B9047761EF8D220460B
:10125000FFF740FABDE8F0814E414E006E616E002E
:10126000494E4600696E66002DE9F04781461646F4
:101270008AB0334878440DC88DE80D003048784472
:10128000801C03AC0DC884E80D0041F69B30084477
:10129000372190FBF1F290FBF1F5A5F1800501FB00
:1012A00012041B3C02D56442012000E00020DFF85C
:1012B00090A080460027FA44AAF1BE0A0DE0E0079C
:1012C00009D03246684607EB47010AEB810100F07E
:1012D000CBFA8DE8070064107F1C002CEFD1184F6B
:1012E0007F44AC3F18E0E80714D007EB04100DF181
:1012F000180A90E80E008AE80E00C068F04201D19A
:1013000098190890324606A903A800F0ADFA03AB7D
:1013100083E807006D10641C002DE4D13246694655
:10132000B8F1000F03A802D000F08AFA01E000F043
:101330009BFAC9E90001C9F808200AB0BDE8F087A6
:10134000642200000446AFF300802046FEF76BFFE6
:1013500001491820ABBEFEE72600020070475FEA95
:10136000400C08BF91F0000F4FEA8C234FEAC122D6
:1013700043EA51514FEA1C5018BF00F5F0404FEAC4
:10138000300018BF41F000415FEA6C5C00F029803A
:10139000BCF1FF3F08BF40F080407047130C06BF10
:1013A00012044FF0100C4FF0000C130E04BF120289
:1013B0000CF1080C130F04BF12010CF1040C930F75
:1013C00004BF92000CF1020CD30F04BF52000CF1C9
:1013D000010C11464FF00002A0F11F00A0EB0C0021
:1013E000704711F0004F08BF704731F000413FF4E3
:1013F000D5AF0B0C06BF09044FF0100C4FF0000CDA
:101400000B0E04BF09020CF1080C0B0F04BF0901FD
:101410000CF1040C8B0F04BF89000CF1020CCB0FF4
:1014200004BF49000CF1010CCCF12003A0EB0C002F
:1014300022FA03F302FA0CF241EA030100F101007F
:10144000704720F07F4C80EA030023F07F47ACEB2D
:10145000070303F57C5300F0004003F1FF032DE97F
:1014600080494FEA154B09B44FEA144325EA0B4E65
:1014700024EA03480FF2042606EB132749083E78B6
:101480005FEA320203FB0667C7F5000707FB06F6B3
:101490004FEA54374FEAD64606F1020607FB066CC0
:1014A000CCF1005C4FEA1C472CEA074C07FB06F422
:1014B0000CFB06F504EB15464FEA961634BF0020E8
:1014C0004FF000404FEAD13706FB07FC4FEA1C4CB7
:1014D0000CFB0BF7D21B03FB0CF761EB07010CFBBA
:1014E0000EF7B0EB074072EB17420CFB08F734BF66
:1014F000A2EB0742B2EB074261EB17414FEA0C4403
:101500004FEA910706FB07FC4FEA1C4C0CFB0BF75C
:10151000B0EBC74072EB573203FB0CF734BFA2EBC2
:10152000C742B2EBC74261EB57310CFB0EF7B0EB91
:10153000C70072EB57720CFB08F734BFA2EBC7026F
:10154000B2EBC70261EB5771039F4FEA816141EA39
:10155000921104EBCC044FEAD1374FEA826206FBCA
:1015600007FC42EA90124FEA80604FEA1C4C0CFBE9
:101570000BF7D21B03FB0CF761EB07010CFB0EF71B
:10158000B0EB074072EB17420CFB08F734BFA2EB3D
:101590000742B2EB074261EB17414FEA8C554FEA25
:1015A000910704EB9C2406FB07FC4FEA1C4C0CFB48
:1015B0000BF7B0EBC74072EB573203FB0CF734BFAD
:1015C000A2EBC742B2EBC74261EB57310CFB0EF7FF
:1015D000B0EBC70072EB57720CFB08F734BFA2EBFD
:1015E000C702B2EBC70261EB577115EB4C254FEA0E
:1015F000816141EA92114FEA82624FEAD13742EAB1
:10160000901206FB07FC44F100044FEA80604FEAA9
:101610001C4C0CFB0BF7D21B03FB0CF761EB070117
:101620000CFB0EF7B0EB074072EB17420CFB08F710
:1016300034BFA2EB0742B2EB074261EB174115EB57
:101640001C154FEA813141EA92414FEA823242EA67
:1016500090424FEA80304FEA0C7644F1000448EAA9
:1016600003434EEA0B484FF0000EB2EB080C71EB4F
:10167000030724BF624639464EEB0E0E4FF0000BB7
:101680000018524149414BEB0B0BB2EB080C71EBCC
:1016900003077BF1000B24BF624639464EEB0E0E6A
:1016A0004FF0000B0018524149414BEB0B0BB2EBD2
:1016B000080C71EB03077BF1000B24BF624639462F
:1016C0004EEB0E0E51EA020718BF46F0010616EB6C
:1016D0000E7655F1000254F1000103D5BDE88901F1
:1016E000BDE80088BDE88901BDE80048B61952414F
:1016F00041EB0101A3F10103704780807F7E7D7C77
:101700007B7A7978777676757473727171706F6E93
:101710006E6D6C6C6B6A6A6968686766666564643E
:10172000636362616160605F5F5E5E5D5D5C5C5BC8
:101730005B5A5A5959585857575656555555545437
:10174000535352525251515050504F4F4F4E4E4D95
:101750004D4D4C4C4C4B4B4B4A4A4A4949494848E1
:101760004847474747464646454545444444444321
:1017700043434342424242414141002B26D4770039
:1017800021D01CB54FEA370703B44FF010004FF0DB
:1017900010014FF000000FBCBDE810400BF1010B31
:1017A000BBF1010F08BF5FEA170722BF12F1010268
:1017B00011F101014FF0004143F1000300F000403E
:1017C00043EA00007047F9D35708DAE746EA0646CD
:1017D00013F1400F4FEA16461FDD13F1200FDFBF54
:1017E00016430A46002120335B42C8D0C3F12007CC
:1017F00046EA064602FA07F74FEA164646EA0706A1
:10180000C3F1200722FA03F201FA07F721FA03F1E4
:101810004FF0000342EA0702B1E746EA020646EA51
:1018200006464FEA164646EA0106BCBF46EA0646A9
:10183000360C4FF000034FF000024FF000019EE71E
:101840002DE9C048934630B491E8380007C831EA22
:10185000400C48BF34EA430C03D5FFF7F2FDFFF715
:101860008CFFF0BCBDE800882DE9C048934630B439
:1018700091E8380007C810F0804F08BF13F0804F80
:1018800003D100F005F8FFF778FFF0BCBDE8008851
:1018900020F07F4780EA030023F07F4C07EB0C0326
:1018A000A3F57C5300F00040A3F1FE0392F0000F7B
:1018B00000F0B38095F0000F00F077802DE901492A
:1018C0004FEA11404FEA144621EA004800FB06FCAB
:1018D00024EA064708FB06F607FB08F800FB07F7B3
:1018E00018EB06484CEB164C4FEA124B18EB074826
:1018F0004FEA15464CEB174022EA0B4E0BFB06FC59
:1019000025EA06470EFB06F607FB0EFE0BFB07F764
:101910001EEB064E4CEB164C4FF000061EEB074E2E
:101920004CEB174B18EB0B0840F1000018EB0E0BBB
:1019300058EB000840F100008F1A4FF000013CBF47
:10194000C943661B14BFB5EB040C00213CBFC9435F
:10195000F61B4FEA17444EEA8E0E27EA04454FEA7B
:101960001C4704FB07622CEA074C05FB07F70CFB3E
:1019700005F604FB0CFC16EB074642EB174216EB90
:101980000C4642EB1C421BEB060658EB020241419F
:1019900046EA9E0601D5BDE80189B619524141EBE0
:1019A0000101A3F10103BDE801894FEA14454FEAA3
:1019B000114724EA054621EA074C05FB07F406FB1C
:1019C00007F70CFB06F105FB0CFC11EB074144EBA0
:1019D00017444FEA124711EB0C4144EB1C4422EA36
:1019E000074C05FB07F206FB07F70CFB06F605FBA9
:1019F0000CFC16EB074642EB174216EB0C4642EB8B
:101A00001C456A1854F1000148BF7047B61952418D
:101A100041EB0101A3F10103704795F0000F37D0AE
:101A20004FEA11424FEA144721EA024624EA074CE2
:101A300002FB07F106FB07F70CFB06F402FB0CFCAC
:101A400014EB074441EB17414FEA154714EB0C44E4
:101A500041EB1C4125EA074C02FB07F506FB07F7A3
:101A60000CFB06F602FB0CFC16EB074645EB174594
:101A700016EB0C4645EB1C42121951F1000148BF10
:101A80007047B619524141EB0101A3F101037047C0
:101A90004FEA14454FEA114724EA054621EA074C6C
:101AA00005FB07F106FB07F70CFB06F24FF00006FB
:101AB00005FB0CFC12EB074241EB174112EB0C4209
:101AC00051EB1C4148BF7047921841EB0101A3F153
:101AD00001037047AFF300800CB500220192009221
:101AE0002748016841F4803101604FF4A063016828
:101AF00001F4003100910199491C0191009911B93B
:101B000001999942F3D10168890302D5012100911D
:101B100000E000920099012930D11A490A6842F088
:101B200010020A600A6822F003020A600A6842F0A2
:101B300002020A604168416041684160416841F4C5
:101B400080614160416821F47C114160416841F449
:101B5000E8114160016841F080710160016889010C
:101B6000FCD5416821F003014160416841F0020168
:101B700041604168C1F381010229FAD10CBD000026
:101B8000001002400020024002480168491C016028
:101B9000704700001400002010B51A4A506800F089
:101BA0000C01194B194800290ED004290ED0082920
:101BB0000ED003605168154AC1F30311121D515C28
:101BC0000268CA40026010BD0360F3E70360F1E7FA
:101BD000516801F47011536803F48033022404EB5C
:101BE000914133B153689B0307D5094B59430160B9
:101BF000E0E7074B59430160DCE7034B59430160C1
:101C0000D8E700000010024000127A000000002017
:101C100000093D0010B50F48016841F00101016065
:101C200041680D4A1140416001680C4A1140016051
:101C3000016821F480210160416821F4FE014160C6
:101C40004FF41F018160FFF745FF05494FF0006029
:101C5000086010BD001002400000FFF8FFFFF6FE14
:101C600008ED00E010B5104800880F49091D0988EB
:101C7000CAB20E49030704D0887840F0010088708A
:101C800010BD8006FCD50878401CC0B24B78984245
:101C900004D1887840F00200887010BD044B0C78A5
:101CA0001A55087010BD00000038014034000020B3
:101CB0002C010020490050EAC12018BF04204A0D21
:101CC00018BF40F0010040F2FF72B2EB515F08BF55
:101CD00040F00200012808BF0520704730380A286C
:101CE00001D20120704700207047000070B5044603
:101CF0002078002832D000221C4D0F21284600F009
:101D000056FD607860B30022194E0D21304600F078
:101D10004EFDA07830B300220E21304600F047FD82
:101D2000E07808B300220F21304600F040FD114E4C
:101D300022790C21304600F03AFD62790E213046BE
:101D400000F035FDA2790021304600F030FDE27947
:101D50002846BDE870400C2100F029BD0122CBE7E8
:101D60000122D1E70122D7E70122DCE70008014088
:101D700000100140000C01401CB5002000900190B3
:101D80006846FFF7B3FF1CBD10B51848816941F4E0
:101D900003718161416821F4404141F40041416097
:101DA000134C00220121204600F0F6FC0022042101
:101DB000204600F0F1FC002201210E4800F0ECFC6E
:101DC0000D4C012020600A2000F058FC206840F0F3
:101DD0000800206020680007FCD4206840F0040060
:101DE000206020684007FCD410BD000000100240B5
:101DF00000080140000C01400824014010B50A21F0
:101E0000B0FBF1F201FB120101EB410107220A28AC
:101E100006D2124C23688A4093431343236006E0A2
:101E20000E4B1B1F1C688A40944314431C600B4AD2
:101E300000211C3211600949243108600748083824
:101E4000016841F001010160044810380168890708
:101E5000FCD502483C30006880B210BD102401401F
:101E600070B50646002500243046FFF7C7FF05443D
:101E7000641CE4B2082CF7D3022000EBD500C0F3B9
:101E80008F0070BD70B505460E4614460120FFF761
:101E9000E7FF20800420FFF7E3FF28800920FFF7F9
:101EA000DFFF308070BD00003EB53249CA68009245
:101EB0000A690192496902912F4940F2FF320B7879
:101EC00000EB80019B1E072B4FD2DFE803F00410CC
:101ED0001B26313B4500BDF90010BDF90220084426
:101EE0006FF0130100F086FAADF800003DE0BDF997
:101EF0000220BDF900101044502200F07BFAADF82A
:101F0000020032E09DF804109DF8052008440021ED
:101F100000F0A0FB8DF8040027E09DF805209DF857
:101F200004101044642200F095FB8DF805001CE0BD
:101F3000BDF8060000EB4100002100F08BFBADF87E
:101F4000060012E0BDF8080000EB4100002100F09F
:101F500081FBADF8080008E0BDF80A0000EB410085
:101F6000002100F077FBADF80A00684600F078F930
:101F70003EBD000040000020180000200549002060
:101F8000C8708870487008700861C86088604860D0
:101F9000704700005800002003480078022801D351
:101FA00001207047002070471800002070B5344EA3
:101FB000B17A01F00100C1F340023146B1F90030BD
:101FC0000C31002805D0B1F90240A34201DD012502
:101FD00000E000252B4C257028B1B1F90050AB4230
:101FE00001DA012300E000236370254B9B7820B1C8
:101FF0004D79AB4201D9012500E00025A57020B143
:102000000879834201D2012000E00020E0702AB16B
:1020100030894B89984201D2012000E000202071D4
:102020002AB1B388CD88AB4201D9012300E0002357
:1020300063712AB1F28809898A4201D2012100E044
:102040000021A171E3710F490A688A604A68CA6079
:102050000B4D1835297800F0ABFE0A4E083630716A
:102060006978607900F0A4FE7071A978A07900F019
:102070009FFEB071E978E07900F09AFEF07170BDD2
:10208000400000201900002010B5124819210180DD
:10209000372181704FF4967181804FF4FA72C280BB
:1020A00002810022827212230C300380202343809D
:1020B00028230371502343714B00C38001814FF4E7
:1020C000AF71418104480270FFF758FFBDE810402E
:1020D000FFF76CBF400000201800002000B5FFF79C
:1020E0005BFF074930B10878082806D0401CC0B211
:1020F000087000BD0220087000BD0220F8E7000053
:102100001800002000B5FFF747FF064910B1002076
:10211000087000BD087810B10020087000BD0120D3
:10212000FBE700001800002070B50D46144600289B
:1021300004D02946204600F01BFB08B1002070BDEA
:10214000281B00F2E7304FF47A71B0FBF1F080B257
:1021500070BD000070B50646134D00242878002895
:1021600005D03046696800F003FB00B12C70687838
:1021700028B13046A96800F0FBFA00B16C70A8786D
:1021800028B13046E96800F0F3FA00B1AC70E878A5
:1021900028B13046296900F0EBFA00B1EC70BDE8D7
:1021A0007040FFF703BF0000580000202DE9F04702
:1021B000054688461746994621A12846FEF724FA87
:1021C000214C98B121A12846FEF71EFA4FF4E16692
:1021D00080B11FA12846FEF717FA78B11EA1284644
:1021E000FEF712FA70B10020BDE8F087164D241DED
:1021F00078260BE0651C144C083407E0A51C124C33
:102200000C3403E0E51C104C10343C26B8F1000FF0
:1022100004D00FB1B74201D90020E5E785F800806E
:10222000B8F1000F0AD007EB4700C0EBC71009EB6D
:10223000C0002060FFF7BAFE0120D5E70020F8E7D4
:1022400050554D50000000005800002046414E00FF
:102250004C414D5000000000424545500000000038
:1022600010B5B0F9002012F1140F18DBB0F902100C
:10227000502914DC8A4212DC017964290FD8427992
:10228000642A0CD891420AD8C1884FF480629142E6
:1022900005D20189914202D24189914201D30020A5
:1022A00010BD05490268CA6042680A6180684861D9
:1022B000FFF77CFE012010BD400000200648816928
:1022C00044F20402114381610448016821F47F61F2
:1022D00041F496610160704700100240040801401B
:1022E00070B53F48816941F01D0181613D484168F9
:1022F00021F0E06141F0007141603B4C00220C2173
:10230000204600F054FA00220E21204600F04FFA39
:1023100000221146204600F04AFA344D00220C21DA
:10232000284600F044FA01220F21284600F03FFA27
:102330002F4E01220D21304600F039FA01220E21E4
:10234000304600F034FA01220F21304600F02FFA17
:1023500002220C21204600F021FA02220E21204602
:1023600000F01CFA02220021204600F017FA022297
:102370000C21284600F012FA02220F21284600F014
:102380000DFA02220D21304600F008FA02220E2139
:10239000304600F003FA02220F21304600F0FEF929
:1023A00001220721204600F002FA012206212046E0
:1023B00000F0FDF908220721204600F0EDF908227F
:1023C0000621204600F0E8F908220321204600F00B
:1023D000E3F92046BDE870400122032100F0E7B98F
:1023E0000010024000000140000C014000080140C4
:1023F00000100140884201DA08467047904201DD32
:102400001046704700B2704701B5012269460020AE
:1024100000F0F4FE08BD0000F8B500F067FD0146CD
:1024200011B11AA000F0E3FB00251F4E1F4C26E05F
:102430009DF800100A2902D0207800BB13E0207814
:1024400070B9608860B13554311811F8011C0D293C
:1024500003D1401E80B260803554134800F0E8FB81
:10246000658025700BE06088BF2803D2421C628023
:10247000315404E0012020700DA000F0B8FB684644
:1024800000F03CFD0028D3D1F8BD00004552522C8D
:10249000302C554152545F4552524F522C434F44B9
:1024A000453D25750D0A00006C0000202A00002023
:1024B0004552522C302C4C494E455F544F4F5F4C87
:1024C0004F4E470D0A000000082900D3001D704739
:1024D0002DE9F04F824689B0084600240027019775
:1024E0003BA1FEF72FF883460DF10C080DF108090A
:1024F0003EE03D215846FEF72BF8B0B10770451C71
:1025000034A15846FEF780F8A0B1284600F062FAE0
:102510000546FF2D01D0042C16D35A4651462EA055
:1025200000F065FB09B0BDE8F08F514631A000F026
:102530005EFBF7E701A9284600F06EFA98B951460C
:1025400031A000F054FBEDE704EB440008EB40063B
:10255000052259463046FEF72CF877712046641C58
:10256000E4B209F800501AA10020FDF7EBFF834602
:10257000BBF1000FBDD10CB1002514E051461DA0E8
:1025800000F035FBCEE700F0C5FD0346019819F8D1
:10259000051082B205EB450008EB4000FFF706FE90
:1025A00068B16D1CEDB2A542EDD31F48FFF79EFB4D
:1025B00051461EA000F01BFB00F0EEFBB2E705EB5E
:1025C000450008EB400251461CA000F010FBA9E7B3
:1025D0002C00000054544C004552522C25732C42C0
:1025E00041445F56414C55452C4649454C443D2598
:1025F000730D0A004552522C25732C4D414C464F09
:10260000524D45440D0A00004552522C25732C4270
:1026100041445F56414C55452C4649454C443D5438
:10262000544C0D0A000000002100002041434B2CB7
:1026300025732C4354524C0D0A0000004552522C75
:1026400025732C52414E47452C4649454C443D2567
:10265000730D0A00884201DA08467047904201DD96
:102660001046704780B2704703490A680B689B1A8E
:102670008342FBD3704700001400002000B50246DF
:1026800000F0A4F9014600F0A1F9401A80B290428E
:10269000F9D300BD10B500F063F80122BDE8104089
:1026A0000021014800F083B8000801402DE9FC41F9
:1026B00006460F4600F054F8244C002211462046EE
:1026C00000F075F81420FFF7CFFF0122002120460B
:1026D00000F06DF81E20FFF7D1FF00F039F86421FB
:1026E000002000F0E7FD30B36421012000F0E2FD9E
:1026F00008B36421002000F0DDFDE0B100246D4648
:10270000281900F021FBC0B1641CE4B2052CF7D3FA
:102710009DF800009DF801109DF802209DF80330FF
:1027200001441A4411449DF80420C9B2914206D0D4
:102730000020BDE8FC810020FBE70020F9E73870AD
:102740009DF8020030800120F3E7000000080140FE
:1027500004220021014800F01FB8000000080140D9
:1027600006220021014800F019B8000000080140CD
:10277000401AC017401C704770B50C4615462146DC
:10278000FFF7A2FE6107C90E02680F238B409A4330
:102790008D402A43026070BDFFF7EEBFFFF7ECBF2C
:1027A000806801228A40104000D001207047012338
:1027B0008B40002A01D003617047436170470000DD
:1027C00003490320487008700020488070470000CB
:1027D0002E00002070B5204D07212846FFF7E0FFAE
:1027E000044606212846FFF7DBFF08B1022100E07E
:1027F00000210C430020194B002559788C420AD146
:1028000059884EF66022914201D21431598059887C
:10281000282904D00BE05C705D80002070BD1C7026
:1028200014B1012C02D002E0042000E003204FF498
:102830002F76B14202D1022C00D10220032CEDD11F
:102840001A78032AEAD0022A02D1B14200D201202A
:10285000032119705D8070BD000C01402E00002026
:1028600088B0002007900690059004900390029095
:10287000FFF7D0F9FFF790F9FFF732FD00F050FCB9
:10288000FFF702FCFFF778FAFFF77EFAFFF702FF87
:10289000FFF796FF00F094FA00F0D0F83CA000F0AB
:1028A000A6F94FF4FA76454CB500FFF7B5FD642163
:1028B00002A800F021FC30B100F02CFCFFF74AFC2C
:1028C0003F48FFF713FA142107A800F015FCD8B110
:1028D000FFF780FF012806D0022807D0032808D080
:1028E00004280AD00DE0FFF7F9FB0AE0FFF70AFC25
:1028F00007E00120FFF7D8FA03E04FF0FF30FFF7C1
:10290000D3FA2F48FFF7F2F9314606A800F0F4FB9E
:1029100070B12A4AA11D0832201DFFF7B3FAA07A30
:1029200040F00200A072FFF741FB2548FFF7DEF9F7
:10293000294605A800F0E0FB98B1694601A8FFF719
:10294000B5FE48B1BDF8040020809DF80000A070DD
:10295000A07A40F00100A072FFF728FB1848FFF7AB
:10296000C5F9FA2104A800F0C7FB28B1154816499B
:102970000278124800F096F8294603A800F0BCFB44
:10298000002892D00E4A10490C4800F045FA8CE716
:10299000536D617274416772692053544D333246EE
:1029A0003130334338207374617274206174203085
:1029B0007830383030303030300D0A0040000020A0
:1029C00021000020180000204C0000204FF0804023
:1029D000808C704710B504460BA12046FDF714FE0D
:1029E00058B10BA12046FDF70FFE40B109A12046CA
:1029F000FDF70AFE28B1FF2010BD002010BD012008
:102A000010BD022010BD00004155544F00000000D1
:102A10004F4646004F4E000038B505460C460A2288
:102A200069462846FDF756FD2060287810B10098C9
:102A3000007808B1002038BD012038BD70B51448B9
:102A4000816941F008018161C16941F48001C1617E
:102A50001048016841F47F4101600F49242008803B
:102A60000D49B420183108802520091D08800A4925
:102A70000120091F0880094908700024084D285DBD
:102A8000FFF7C2FC641CE4B2172CF8D370BD000041
:102A900000100240040C01400458004032000020A5
:102AA00006340008F0B5A7B006460C4617460025C8
:102AB000802101A8FDF756FD0021284600F086F888
:102AC000802201A9402000F099FB6D1CEDB2082D79
:102AD000EED37FB3B4F90230B4F900202BA121A8C2
:102AE000FDF7E2FB002121AA084600F047FB6379CD
:102AF000227928A121A8FDF7D7FB21AA00210220D5
:102B000000F03CFB2389E28824A121A8FDF7CCFB3F
:102B100021AA0021042000F031FB62893B4621A15B
:102B200021A8FDF7C1FB21AA0021062000F026FB09
:102B300027B0F0BDFFE7B378B6F900201BA121A8AC
:102B4000FDF7B2FB002121AA084600F017FBB2886E
:102B500018A121A8FDF7A8FB21AA0021022000F05E
:102B60000DFBF28815A121A8FDF79EFB21AA0021EB
:102B7000042000F003FB328912A121A8FDF794FB89
:102B800021AA0021062000F0F9FAD1E7542564209B
:102B90002564000048257520257500004125752015
:102BA0004C2575005325752050257500542564204B
:102BB0004825750041495225750000004C49474899
:102BC00054257500534F494C2575000010B50C462F
:102BD00040F0B000FFF718FC04F00F00FFF714FC02
:102BE000102040EA1410BDE81040FFF70DBC0FB4F0
:102BF00030B5D1B055AB4FF4A075294601A8549A11
:102C0000FDF738FB04460020009020000BD4AC42B6
:102C100000DB6C1E002301AD03E0E85C00F0F2F87D
:102C20005B1CA342F9DB51B030BC5DF814FB000023
:102C300070B529A1FDF786FC064627A10020FDF707
:102C400081FC054625A10020FDF77CFC044686B1E9
:102C50007DB123A13046FDF7D7FC78B121A13046E4
:102C6000FDF7D2FCB8B121A13046FDF7CDFCF8B19B
:102C700024E0BDE870401EA0FFF7B9BF2CB121468B
:102C80002846BDE8704000F04DB92946BDE87040C7
:102C90001CA0FFF7ACBF2CB121462846BDE8704010
:102CA000FFF716BC2946BDE8704016A0FFF79FBF8E
:102CB00024B119A12046FDF7A7FC28B12946BDE89B
:102CC000704017A0FFF793BF29461BA0FFF78FFFA7
:102CD000BDE8704000F060B82C000000000000006B
:102CE000534554004354524C0000000047455400E3
:102CF0004552522C302C4D414C464F524D45440DBF
:102D00000A0000004552522C25732C4D414C464F71
:102D1000524D45440D0A00005354415445000000F3
:102D20004552522C25732C554E4B4E4F574E5F43F8
:102D30004D440D0A0000000041434B2C25732C47E5
:102D400045540D0A000000002DE9F041074600241B
:102D500000256421012000F0ADFAC8B1FFF736FE6E
:102D600006466421002000F0A5FA98B16006040E22
:102D7000FFF72CFE801B80B22D2801D944F00104FE
:102D80006D1CEDB2082DE4D33C700120BDE8F0814C
:102D90000020FBE70020F9E7024A0349034800F05E
:102DA0003BB80000210000204C0000204000002023
:102DB000022903D0012900D100207047012070476B
:102DC00010B5FFF77BFA0B484FF41651006801EB82
:102DD00050004900B0FBF1F007490880091D42F29C
:102DE0002C0008800549202008700549C1F8000121
:102DF00010BD0000000000200838014025E400E07C
:102E000004E000E003490A881206FCD50149091DC7
:102E100008807047003801402DE9F04F9DB007460B
:102E20000D46144600F076F980462D4E4246F07865
:102E30003169FFF779F98146B0784246F168FFF7CA
:102E400073F9824670784246B168FFF76DF98346A0
:102E5000307842467168FFF767F9F178B278CDE9CA
:102E6000182ACDE91A1971783278CDE9161BCDE907
:102E700014201C494868421C4A60E179A279CDE9D6
:102E80001208CDE9102162792079E178A378CDE9A3
:102E90000C31CDE90E0260782178BA7A6B89CDE9E0
:102EA0000832CDE90A102889EA8869792B79CDE9B9
:102EB0000431CDE90620B5F90200B5F900203989C1
:102EC000FB88CDE90220CDE90031BB88BA78B7F99B
:102ED00000100548FFF78BFE1DB0BDE8F08F000025
:102EE0005800002034000020F4340008024988789B
:102EF00000228A70704700003400002007490A78D9
:102F00004B789A4201D100207047054A4B78D25C39
:102F100002704878401C487001207047340000203F
:102F20002C0100207FB506460A46464801680191FB
:102F30004168029180680390002443A11046FDF788
:102F400001FB054668E03D212846FDF701FB00280E
:102F500036D0002100F8011B6946FFF75DFD00280F
:102F600033D03AA12846FDF74FFB002833D039A1D2
:102F70002846FDF749FB002831D038A12846FDF747
:102F800043FB00282FD037A12846FDF73DFB002842
:102F90002DD036A12846FDF737FB00282BD035A1D0
:102FA0002846FDF731FB002829D034A12846FDF73B
:102FB0002BFB40B32A46314632A0FFF718FE7FBDF7
:102FC000314638A0FFF713FE7FBD2A4631463AA0AE
:102FD000FFF70DFE7FBD0098ADF8040016E00098E5
:102FE000ADF8060012E000988DF808000EE0009899
:102FF0008DF809000AE00098ADF80A0006E0009894
:10300000ADF80C0002E00098ADF80E0001240EA10E
:103010000020FDF797FA0546002D94D16CB101A868
:10302000FFF71EF948B12B48FEF760FE31462AA093
:10303000FFF7DDFDFFF7B0FE7FBD31462AA0FFF7A9
:10304000D6FD7FBD4C0000202C000000544D494EA1
:1030500000000000544D415800000000484D494E0A
:1030600000000000484D4158000000004149524D09
:10307000415800004C4D494E00000000534D494E50
:10308000000000004552522C25732C554E4B4E4FDC
:10309000574E5F4B45592C4649454C443D25730DD1
:1030A0000A0000004552522C25732C4D414C464FCE
:1030B000524D45440D0A00004552522C25732C42B6
:1030C00041445F56414C55452C4649454C443D25AD
:1030D000730D0A002100002041434B2C25732C5313
:1030E00045540D0A000000004552522C25732C5205
:1030F000414E47450D0A0000054A12680368D31A7D
:103100008B4202D30260012070470020704700000C
:1031100014000020014800687047000014000020DF
:10312000124801684FF47A70B1FBF0F0401EB0F124
:10313000807F09D24FF0E02250610D4BF0201870D3
:1031400000209061072010610A48C26942F0010224
:10315000C2610948B1FBF0F1491E000601854FF636
:10316000FF7181850121018070470000000000206F
:1031700023ED00E00010024040420F007CB50C46F9
:1031800015462146FFF722FD6E462FE06D1C0020FC
:1031900000900190A3F14100192802D83F3BDBB217
:1031A00010E0303B092B0CD80020134A03EB8301BD
:1031B00011440A5C3254401CC0B20528F9D30023E4
:1031C00000E000235BB100200B4A03EB83018C3A43
:1031D00011440A5C3254401CC0B20528F9D30622BF
:1031E0006946402000F00AF8A41DE4B22B78002BB9
:1031F00001D07A2CCAD37CBDD43300082DE9F04726
:1032000004460D46164622480078002802D10CB12B
:10321000BDE8F0871F4F388840F480703880DFF8B1
:103220007490012109F11409484600F035F880B185
:10323000A9F104087820A8F800000221484600F00F
:103240002BF840B109F104000088A8F800400024E0
:103250000DE00020DCE70020DAE78021484600F09E
:103260001BF888B1285DA8F80000641CA4B2B44221
:10327000F3D30421484600F00FF838B1388840F401
:10328000007038800120C3E70020C1E70020BFE7BD
:103290003200002000580040054A03880B4201D14B
:1032A000521EFAD10AB10120704700207047000079
:1032B000A08601002DE9F04105460C46FFF786FB8C
:1032C0000646094F08E0FFF781FB801B80B2A04251
:1032D00002D90020BDE8F08100213846FFF760FAEE
:1032E000A842F0D10120F5E70008014010B50029FF
:1032F0000AD00878002807D005487844FDF784F9FB
:10330000002801D0002010BD0248784410BD000004
:10331000220300001A03000010B500290AD0087823
:10332000002807D005487844FDF76EF9002801D041
:10333000002010BD0248784410BD000006040000C3
:10334000FE030000FDF77CBD000000000000005FF0
:1033500000007E1111117E7F494949363E414141AD
:10336000227F4141221C7F494949417F09090901C6
:103370003E4149497A7F0808087F41417F41412009
:1033800040413F017F081422417F404040407F027E
:103390000C027F7F0408107F3E4141413E7F0909B6
:1033A00009063E4151215E7F09192946464949498E
:1033B0003101017F01013F4040403F1F2040201F5D
:1033C0007F2018207F6314081463030478040361CA
:1033D000514945433E5149453E00427F40004261CC
:1033E0005149462141454B311814127F102745455C
:1033F00045393C4A49493001710905033649494973
:1034000036064949291EAE2002A1C8817FA6A83FE1
:10341000D300D580D9F1DA12DB408D14AF0400005F
:103420000800000000000000020001000010000081
:1034300000000000000000003031323334353637F0
:1034400038394142434445464030580030313233E8
:1034500034353637383961626364656640307800E8
:1034600002400000000000A0000000000540000035
:10347000000000C8000000000C4000000000409C5C
:1034800000000000194000000020BCBE0000000049
:1034900034400000BFC91B8E00000004B54000008E
:1034A000504BCFD06607E2CF010000006C41000016
:1034B0003E8251AADFEEA73401000000D94200008D
:1034C000DCB5A0E23A301F97FFFFFFFFB4450000D4
:1034D000FD25A0C8E9A3C14FFFFFFFFFFF3F00008C
:1034E0000000008000000000FF3F0000000000809E
:1034F00000000000444154412C543D25642C483DBB
:1035000025752C4149523D25752C4C494748543D61
:1035100025752C534F494C3D25752C544D494E3D36
:1035200025642C544D41583D25642C484D494E3D51
:1035300025752C484D41583D25752C4149524D412A
:10354000583D25752C4C4D494E3D25752C534D4904
:103550004E3D25752C56414C49443D25752C4C4516
:1035600044313D25752C4C4544323D25752C4C4548
:1035700044333D25752C4C4544343D25752C505520
:103580004D503D25752C46414E3D25752C4C414DE9
:10359000503D25752C424545503D25752C534551D0
:1035A0003D256C752C555054494D453D256C752C69
:1035B000504D4F44453D25752C5052454D3D257588
:1035C0002C464D4F44453D25752C4652454D3D25D5
:1035D000752C4C414D504D4F44453D25752C4C525A
:1035E000454D3D25752C424D4F44453D25752C429A
:1035F00052454D3D25750D0A000000004837000872
:103600000000002040000000280100088837000862
:103610004000002050080000440100081001000094
:1036200043000000F8FFFFFF0040404040404040A2
:103630004040414141414140404040404040404085
:103640004040404040404040400502020202020229
:103650000202020202020202022020202020202078
:10366000202020020202020202029090909090908C
:10367000101010101010101010101010101010104A
:1036800010101010020202020202888888888888BE
:1036900008080808080808080808080808080808AA
:1036A00008080808020202024000000000000000B2
:1036B000000000000000000000000000000000000A
:1036C00000000000000000000000000000000000FA
:1036D00000000000000000000000000000000000EA
:1036E00000000000000000000000000000000000DA
:1036F00000000000000000000000000000000000CA
:1037000000000000000000000000000000000000B9
:1037100000000000000000000000000000000000A9
:103720000000000000000000000000001C0000007D
:1037300043000000F8FFFFFF0C0000000E00000037
:103740000F0000002E00000000A24A04000000004C
:103750000000000001020304060708090000000041
:103760000000000000000000000000000000000059
:103770000000000000000000000000000000000049
:08378000000000000000000041
:0400000508000235B8
:00000001FF
