:020000040800F2
:1000000000170020350200083D0200083F020008EA
:1000100041020008430200084502000800000000F9
:10002000000000000000000000000000470200087F
:1000300049020008000000004B020008551E00089D
:100040004F0200084F0200084F0200084F0200084C
:100050004F0200084F0200084F0200084F0200083C
:100060004F0200084F0200084F0200084F0200082C
:100070004F0200084F0200084F0200084F0200081C
:100080004F0200084F0200084F0200084F0200080C
:100090004F0200084F0200084F0200084F020008FC
:1000A0004F0200084F0200084F0200084F020008EC
:1000B0004F020008A91E00084F0200084F02000866
:1000C0004F0200084F0200084F0200084F020008CC
:1000D0004F020008D91E0008291F00084F0200081F
:1000E0004F0200084F0200084F02000800F002F81B
:1000F00000F090F80AA090E8000C82448344AAF132
:100100000107DA4501D100F085F8AFF2090EBAE82F
:100110000F0013F0010F18BFFB1A43F0010318473B
:10012000E048000000490000103A24BF78C878C1B8
:10013000FAD8520724BF30C830C144BF04680C60ED
:10014000704700000023002400250026103A28BF35
:1001500078C1FBD8520728BF30C148BF0B60704739
:100160006E2900F00D85702900F06D86662904F077
:100170002582652904F02282672904F01F82612903
:10018000AFF3008003681B0A28BF41F08001692992
:1001900000F05E81642900F05B81752900F05881D0
:1001A0006F2900F0FB85782900F03986E92900F0F5
:1001B0009585E42900F09285F52900F08F85EF29D7
:1001C00000F0F885F82900F038860368DB0928BFBD
:1001D00041F08001632900F01685732900F01B852A
:1001E000E32901F04381F32901F0488100207047A1
:1001F0001FB500F0DBFE04000020002104F0B2F97E
:10020000401C60600020002104F0C2F9E0601FBDC6
:1002100010B510BD01F082F91146FFF7E9FF02F0B9
:1002200075FF01F04FFA03B4FFF7F2FF03BC01F0D2
:100230004FFA00000948804709480047FEE7FEE7FB
:10024000FEE7FEE7FEE7FEE7FEE7FEE7FEE7FEE786
:1002500004480549054A064B70470000651E000822
:10026000ED000008001100200017002000130020FE
:100270000013002053EA020C00F069802DE9F04BD6
:100280004FF00006002B1FBFB3FA83F503FA05F405
:1002900024FA05F65E4012BF1643B2FA82F502FA5E
:1002A00005F4C5F120051EBF22FA05FC44EA0C0442
:1002B000203556EA044C4FEA144418BF641C4FF032
:1002C00000084FF00009904271EB030C39D300296C
:1002D00019BFB1FA81F701FA07F6B0FA80F700FA10
:1002E00007F6C7F120071EBF20FA07FC46EA0C06F6
:1002F0002037B6FBF4FCA7EB0507103F07F01F0BF8
:10030000CBF120060CFA0BFB2CFA06F644BFB346E1
:100310000026202FA4BF5E464FF0000B5BEA060CC0
:1003200008BF4FF0010B19EB0B09ABFB027C48EB4C
:100330000608C01B06FB02CC0BFB03CC71EB0C01C7
:10034000C1E70B46024641464846BDE8F08B13B56F
:100350004FF000004FF00001AFF30080BDE81C40FB
:10036000704700007CB51D4616460C00009001D079
:100370002044401E074B7B442A4669460190304684
:1003800000F017FC05461CB10020694600F024FC73
:1003900028467CBD690800000FB41CB5084B06AAAE
:1003A0007B4469460090059800F003FC0446002059
:1003B000694600F011FC20461CBC5DF814FB0000EF
:1003C000350800000FB47CB50C0009AA009001D0DC
:1003D0002044401E084B7B4469460190089800F079
:1003E000E8FB05461CB10020694600F0F5FB2846F5
:1003F0007CBC5DF814FB00000908000070B50C46D9
:100400000546012A05D02878800600D5EA69002330
:1004100002E0012305E05B1C934202D2E05C00286D
:10042000F9D1A869E618C01AA861286A1844286298
:10043000284600F013FB04E0D5E9012114F8010B74
:100440009047B442F8D3284600F01EFB70BD000070
:100450002DE9F0410646002410687529314616A59D
:1004600010D000F022FB002802DA404213A507E07A
:1004700031688A0701D512A502E0490704D511A504
:10048000012401E000F01AFB00210A2206F12407F2
:1004900009E0B0FBF2FCB0FBF2F302FB1C003030D1
:1004A00078541846491C0028F3D123462A46304682
:1004B000BDE8F04100F00BBB000000002D00000083
:1004C0002B000000200000002DE9F05F8946044663
:1004D0004FF0000ADFF874B1FB44C0F820A02046BA
:1004E000E1688847002874D0252806D0D4E9012186
:1004F0009047206A401C2062F1E700265F462046B4
:10050000E16888472028054607DB312D05D2781998
:1005100010F8200C08B10643F1E7B00701D526F02A
:100520000406C4F81CA00027C4F818A02A2D09D07E
:10053000284601F035FD38B304EB8708303DC8F894
:10054000185019E059F8041B204604EB870291610A
:10055000E1688847012F054618D1E069002820DAB4
:1005600026F020061DE0D8F8180000EB800005EB0F
:1005700040003038C8F818002046E1688847054632
:1005800001F00EFD0028EED1012F0AD02E2D08D14A
:100590002046E16888477F1C0546022F46F020066A
:1005A000C4DBA069002803DA404246F00106A061DE
:1005B000F00701D026F010066C2D0BD0682D09D065
:1005C0004C2D39D06A2D35D0742D35D07A2D33D0BD
:1005D00016E038E0E1682F4620468847B8420546D5
:1005E00009D16C2F26D04FF48060E1680643204685
:1005F0008847054604E06C2F1AD04FF480700643FC
:100600000DB3A5F14100192802D8203546F4006643
:100610004A462946204626604E46FFF7A1FD80B196
:1006200001280BD0F61D26F0070000F1080956E757
:100630004020E4E78020D8E70020D6E706F104094F
:100640004DE7284652E7206ABDE8F09FB941000017
:100650002DE9F04791460F4680460446002614F8DF
:10066000015B2DB100F0EEF90068405DC007F6D1E6
:100670002B2D02D02D2D18D0641E4A463946204617
:1006800000F0ECFB27B13968A14201D1C7F8008026
:100690004FF0020471050BD54042002803DD00F045
:1006A000D9F90460A007BDE8F08746F48066E4E766
:1006B0000028F8DA00F0CEF904606FF00040F2E7AD
:1006C000014A00F01BBC000054000020401ECAB2CA
:1006D00010F8011F8A4202D00029F9D1002070478A
:1006E00030B505460B462A4613F8014B12F8010BAC
:1006F00008B1A042F8D01CB1002802D06D1CF1E76F
:10070000284630BD40EA010310B59B070FD1042AEB
:100710000DD310C808C9121F9C42F8D020BA19BACC
:10072000884201D9012010BD4FF0FF3010BD1AB131
:10073000D30703D0521C07E0002010BD10F8013B86
:1007400011F8014B1B1B07D110F8013B11F8014BAD
:100750001B1B01D1921EF1D1184610BD40EA0103C6
:10076000024630B59B0710D14FF0013400E008C2BB
:1007700008C91D1B9D4315EAC41FF8D013F0FF01E3
:1007800002F8011B0DD01B0AF8E711F8013B002B02
:1007900002F8013B05D011F8013B002B02F8013BA8
:1007A000F3D130BD40EA010370B59B072ED14FF065
:1007B0000136042A2AD308C810C99D1B9D43121F65
:1007C00015EAC61517D0D8B2E1B2401A50EA056151
:1007D00010D198B2A1B2401A50EA05410AD123F0D3
:1007E0007F4024F07F41401A50EA052102D1180EC3
:1007F000A0EB146070BDA342DBD018BA21BA8842C6
:1008000001D9012070BD4FF0FF3070BD0AB9002042
:1008100070BD10F8013B11F8014B63B1A3420AD13E
:10082000521E08D010F8013B11F8014B1BB1A34236
:1008300001D1521EEDD1181B70BD032A40F2308049
:1008400010F0030C00F0158011F8013BBCF1020F11
:10085000624498BF11F801CB00F8013B38BF11F892
:10086000013BA2F1040298BF00F801CB38BF00F8A9
:10087000013B11F0030300F06383083AC0F00880E5
:1008800051F8043B083A51F804CBA0E80810F5E70A
:10089000121D5CBF51F8043B40F8043BAFF30080ED
:1008A000D20724BF11F8013B11F801CB48BF11F862
:1008B000012B24BF00F8013B00F801CB48BF00F832
:1008C000012B704702F0FF0343EA032242EA02428F
:1008D00000F002B84FF000020429C0F0128010F0BE
:1008E000030C00F01B80CCF1040CBCF1020F18BF0C
:1008F00000F8012BA8BF20F8022BA1EB0C0100F09F
:100900000DB85FEAC17C24BF00F8012B00F8012B71
:1009100048BF00F8012B70474FF0000200B51346A6
:1009200094469646203922BFA0E80C50A0E80C500F
:10093000B1F12001BFF4F7AF090728BFA0E80C50C0
:1009400048BF0CC05DF804EB890028BF40F8042BB9
:1009500008BF704748BF20F8022B11F0804F18BF26
:1009600000F8012B704710B5044610F0030F08BFC4
:1009700011F0030F40F015804FF0013E121FC0F23E
:100980000E8051F8043BA3EB0E0C2CEA030C1CEA7E
:10099000CE1C08BF40F8043BF0D0A1F1040102F1E5
:1009A0000402521E08DB11F8013B002B00F8013B4A
:1009B000F7D11146FFF78EFF204610BD4FF0013CE6
:1009C00050F8042B51F8043B9A4221D1A2EB0C03BE
:1009D000934313EACC1317D150F8042B51F8043B7E
:1009E0009A4215D1A2EB0C03934313EACC130BD11B
:1009F00050F8042B51F8043B9A4209D1A2EB0C03A6
:100A0000934313EACC13DBD04FF00000704700BFD4
:100A1000D01A01BAB1FA81F101F0180122FA01F0FD
:100A2000CB40C1F12001DBB2C0B2C01A2CFA01F3F5
:100A3000D11A914311EAC311E6D17047704770474C
:100A40007047000010B500F0B1FA001D10BD00BFE6
:100A5000153B0000004870479C10002070B504460C
:100A600085690068C10601D5302600E02026C00750
:100A700007D070BDD4E9012130469047206A401C60
:100A800020626D1EF6D570BD70B50446856900788C
:100A9000C00707D170BDD4E9012120209047206A0A
:100AA000401C20626D1EF6D570BD09684A0501D54F
:100AB00040B27047C905FCD500B2704709684A05C5
:100AC00001D5C0B27047C905FCD580B270472DE989
:100AD000F0470D4699469246044600F12408016805
:100AE000880604D5E06921F01001216000E00120B2
:100AF000A84201DD471B00E00027A1697A1902EB3B
:100B00000900081AA0612078C00602D42046FFF729
:100B1000A5FF002608E0D4E901211AF80600904755
:100B2000206A401C761C20624E45F4DB2078C0060B
:100B30000AD52046FFF792FF06E0D4E901213020D4
:100B40009047206A401C2062381EA7F10107F4DCA0
:100B500007E0D4E9012118F805009047206A401CFD
:100B60002062281EA5F10105F3DC2046FFF78CFF6B
:100B70002078000602D50220BDE8F0870120FBE7BF
:100B800011680268006A530501D508700AE0D305B0
:100B900001D5088006E0130603D5C217C1E900029B
:100BA00000E008600120704701694A1C0261087872
:100BB000704700B58FB0CDE901310021059105499D
:100BC0007944CDE9031011466846FFF77DFC0FB06C
:100BD00000BD0000E5FFFFFF0A6802F8010B0A6094
:100BE0007047D1E900239A4202D2531C0B60107067
:100BF000704710B5436913B1AFF3008001E0FFF710
:100C0000FDFB012010BD127800F124010A700022C2
:100C10004A700122EDE711684FF0FF32E9E700006A
:100C20002DE9FF5F15468A460446DFF8AC80F8449C
:100C30000027D8E900103E46CDE9001010E03AF850
:100C400016106A4602A800F02BFC411C07D0217840
:100C5000890603D5E269391891420DD80744761CFC
:100C60002078800602D5E069B84205DDAE42E6DBB9
:100C70003AF816000028E2D1A069C01BA061204606
:100C8000FFF7ECFED8E90010CDE90010002017E0D6
:100C90003AF818106A4602A800F002FCB0F1FF3FD3
:100CA00081460BD000250DF1080B05E0D4E90121A8
:100CB0001BF8050090476D1C4D45F7D308F1010066
:100CC000B0428046E4DB206A384420622046FFF7C9
:100CD000DBFEBDE8FF9F0000763A00002DE9F04101
:100CE0008046D21D22F007020025D2E90002F52934
:100CF00015A614D0011E72F1000106DA0023D0EB14
:100D0000030063EB020211A608E0D8F800108B077D
:100D100001D50FA602E0490701D50EA6012511460F
:100D2000002408F1240704E000F044F930323A5579
:100D3000641C50EA0102F7D12B4632462146404658
:100D4000BDE8F041FFF7C3BE000000002D00000029
:100D50002B0000002000000030B4002100F124042A
:100D600008E002F00705D208303542EA4372DB089A
:100D70006554491C52EA0305F3D10468002310A20C
:100D8000250708D504F020040C4304D0C4690123CE
:100D90000CA2641EC46130BCFFF799BE10B50446B6
:100DA00021461068FFF78AFE02462046BDE8104043
:100DB0000023D1E7D21D22F00701D1E90023CBE7C0
:100DC0000000000030000000F0B40D460188090565
:100DD00002D5214C7C4402E01F4C7C440E3400219F
:100DE00000F1240608E002F00F071209E75D42EA6D
:100DF00003721B097754491C52EA0307F3D10278A6
:100E00000023120704D5702D06D009B10223113436
:100E10002246F0BCFFF75BBE01231034F8E770B543
:100E200004460D4621461068FFF748FE0246294653
:100E30002046BDE870400023C6E7D21D22F007031C
:100E4000D3E90023C0E70368126843F0200303607E
:100E50000823C3610023B7E7D83800002DE9F05F0D
:100E6000824615468B4600270AF10104B9460078F0
:100E7000302801D09DB113E014F8010B0127782828
:100E800003D0582801D045B10AE00DB1102D07D18B
:100E9000002714F8010B102502E0082500E00A25C0
:100EA0000026B0460EE005FB080005FB06F1012711
:100EB0001FFA80F801EB1046B6F5803F00D3B94623
:100EC00014F8010B294600F0DDFA0028EBDABBF13B
:100ED000000F05D00FB1641E00E05446CBF800406F
:100EE000B9F1000F06D0FFF7B5FD02210160C81E61
:100EF000BDE8F09F48EA0640FAE700002DE9F0411E
:100F000015460E46040002D12C6804B90BA42046F5
:100F100000F0F6FA0444207870B12746314638468E
:100F200000F0DEFA0444207810B1002004F8010B30
:100F300038462C60BDE8F0810027F9E7000000008A
:100F400010B5203AC0F00B80B1E81850203AA0E864
:100F50001850B1E81850A0E81850BFF4F5AF5FEA98
:100F6000027C24BFB1E81850A0E8185044BF18C94B
:100F700018C0BDE810405FEA827C24BF51F8043BF2
:100F800040F8043B08BF7047D20728BF31F8023B46
:100F900048BF11F8012B28BF20F8023B48BF00F8DA
:100FA000012B7047004870479C1000200048704794
:100FB000BC10002030B5B0F10A024FEA900E71F17A
:100FC00000034EEA817EB0EB0E0061EB91014FEA27
:100FD000101E4EEA017E10EB0E0041EB11114FEA9C
:100FE000102E4EEA016E10EB0E0041EB11214FEA7C
:100FF000104E4EEA014E10EB0E0041EB114140182D
:1010000041F100014FEAD00040EA41704FEAD101BE
:1010100010EB80054FEA810444EA907444EB01042C
:101020006D1944EB0404521BA3414FF0000348BF69
:101030000A3200D530BD401C41F1000130BD70477F
:101040002DE9FF4F0C461E464FF0FF378BB0D2E91B
:101050000001DDF860800A908A46C1F30A5505B99F
:101060003D46002108464FF00000BAF1000F00F4A1
:10107000400005DA00EB80004FF4400101EA500027
:101080004FEA9059B9F1010F00DDB9460A9850EACC
:101090004A000ED044F61050A5F2FF3545432F14F8
:1010A000B8F1000F1ED07542291E1EDDC9F10002E5
:1010B0001CE0B8F1010F4FF0000001D0302103E037
:1010C000F24305E02154401CB042FBDB30460022D5
:1010D000002121540B99C1F80880C1E900200FB00C
:1010E000BDE8F08FBD1B6D1CDEE74A4600DA6942A1
:1010F00006A800F079FA06AB93E8070003AB83E893
:10110000070050460A9900F0EAFA8DE80700A0F5BA
:1011100000501F3800900398002D09DD42F21F0196
:101120004A46084403A90390684600F049FD08E0D8
:10113000A0F500504A461F3803A90390684600F006
:1011400053FD8DE807000004000C03D04FF0FF3082
:10115000410800E01046B8F1000F03D000220092D1
:1011600015461EE0751E05D4FFF724FF3032625588
:101170006D1EF9D5B3460122084302D000227F1C20
:1011800004E02078302801D100227F1E002A099730
:1011900086D01DE0112D07DAFFF70CFF30326255C3
:1011A0006D1C50EA0102F5D1084302D00098C8B185
:1011B0000EE00021681E05E0235C625C635422544B
:1011C000401E491C8142F7DBAB46A81B401E09901C
:1011D000002004F80B000B98099AC0F80880C0E9B9
:1011E000002B7CE711264FF0000859E72DE9F04F5E
:1011F00088460446D21D22F0070191B0D1E90001D2
:10120000CDE90A0100F0B8FE02460B98C00F01D0EC
:101210002D2007E02068810701D52B2002E0202146
:1012200001EAC000032A099001D0072A05DB034622
:101230004146204600F098F90BE12078800601D560
:10124000E06900E00620B8F1650F814606D0B8F1EC
:10125000660F18D0B8F1670F70D131E00020B9F1F6
:10126000110F009001DB112301E009F101030AAA2B
:1012700001A90CA8FFF7E4FEDDE90C70002609F1D6
:101280000105834647E001204B4600904FF00047A0
:101290000AAA01A90CA8FFF7D3FEDDE90DB00C994D
:1012A0005D46002610B909F101000D18B9EB0500E3
:1012B00003D4C0F1FF3609F10105A5EB09002BE0CD
:1012C000B9F1010F01DA4FF001090020B9F1110F56
:1012D0000090484601DD112300E003460AAA01A957
:1012E0000CA8FFF7ADFEDDE90C704D4600268346E5
:1012F000207800070AD4AB4500DA5D4601A8012D2D
:1013000004DD411911F8011C302907D04F4502DADC
:1013100017F1040F04DA012082460FE06D1EEEE79C
:10132000002F02DCED1B3E4403E0781CA84200DDE8
:101330007D1CB81B00F1010A4FF000472078000720
:1013400003D4AA4501DB4FF0FF3A0021B7F1004F6B
:101350000DF143088DF8431024D002202B23002FD9
:1013600001DA7F422D230A21021EA0F1010000DCD8
:101370005FB197FBF1FC97FBF1F201FB1C7C174678
:101380000CF1300C08F801CDEEE7A8F10100037074
:101390002188090501D5452100E06521A0F101085A
:1013A00000F8011C09980FA9A1EB0807FF1D00B167
:1013B0000120411901EBEA70A1693844081A401E66
:1013C000A0612078C00602D42046FFF747FB0998A9
:1013D00028B1D4E901219047206A401C206220787E
:1013E000C00622D52046FFF739FB1EE0002E04DBA5
:1013F000B34502DD01A8805D00E03020D4E9012181
:101400009047206A401C2062761CAAF101005FEA26
:10141000000A0AD1FFF7CAFDC0680168405CD4E940
:1014200001219047206A401C2062281EA5F1010579
:10143000DCDC07E0D4E9012118F8010B9047206AB1
:10144000401C2062381EA7F10107F3DC2046FFF79D
:101450001BFB032011B043E610B5436913B1AFF392
:10146000008001E0FFF7DCFB012010BD128800F1D5
:10147000240182840022C2840122EDE711684FF02A
:10148000FF32E9E73A2800D2303820F02002412A22
:1014900001D3A2F13700884201D34FF0FF307047EB
:1014A00070B516460C460546FFF7CCFA036893F86C
:1014B0000101012806D0FF2C0FD8185D68B101206A
:1014C0002C7070BDD3F807013246214603F2071392
:1014D00003442846BDE8704018474FF0FF3070BD08
:1014E00030B503461D781DB10A4603E0AC4201D178
:1014F000181A30BD12F8014B002CF7D15B1CF1E734
:1015000030B503461D783DB10A4612F8014B1CB1B7
:10151000AC42FAD15B1CF5E7181A30BD7546FFF7EF
:1015200041FDAE4605006946534620F0070085465A
:1015300018B020B5FEF78CFEBDE820404FF0000645
:101540004FF000074FF000084FF0000B21F00701AB
:10155000AC46ACE8C009ACE8C009ACE8C009ACE8EE
:10156000C0098D46704700002DE9F0411F46044632
:1015700003260168072A01F4006004DB08B116A500
:1015800005E016A503E008B115A500E015A521F0BA
:1015900010002060A069C01EA0610FB1401EA061B4
:1015A0002046FFF75BFA4FB1D4E901213846904756
:1015B000206A401C2062C01C206206E0206AFAE714
:1015C000D4E9012115F8010B9047761EF8D2204688
:1015D000FFF75AFABDE8F0814E414E006E616E0091
:1015E000494E4600696E66002DE9F0478146164671
:1015F0008AB0334878440DC88DE80D0030487844EF
:10160000801C03AC0DC884E80D0041F69B300844F3
:10161000372190FBF1F290FBF1F5A5F1800501FB7C
:1016200012041B3C02D56442012000E00020DFF8D8
:1016300090A080460027FA44AAF1BE0A0DE0E00718
:1016400009D03246684607EB47010AEB810100F0FA
:10165000CBFA8DE8070064107F1C002CEFD1184FE7
:101660007F44AC3F18E0E80714D007EB04100DF1FD
:10167000180A90E80E008AE80E00C068F04201D116
:1016800098190890324606A903A800F0ADFA03ABFA
:1016900083E807006D10641C002DE4D132466946D2
:1016A000B8F1000F03A802D000F08AFA01E000F0C0
:1016B0009BFAC9E90001C9F808200AB0BDE8F08723
:1016C0005C3100000446AFF300802046FEF7ABFD1E
:1016D00001491820ABBEFEE72600020070475FEA12
:1016E000400C08BF91F0000F4FEA8C234FEAC12253
:1016F00043EA51514FEA1C5018BF00F5F0404FEA41
:10170000300018BF41F000415FEA6C5C00F02980B6
:10171000BCF1FF3F08BF40F080407047130C06BF8C
:1017200012044FF0100C4FF0000C130E04BF120205
:101730000CF1080C130F04BF12010CF1040C930FF1
:1017400004BF92000CF1020CD30F04BF52000CF145
:10175000010C11464FF00002A0F11F00A0EB0C009D
:10176000704711F0004F08BF704731F000413FF45F
:10177000D5AF0B0C06BF09044FF0100C4FF0000C56
:101780000B0E04BF09020CF1080C0B0F04BF09017A
:101790000CF1040C8B0F04BF89000CF1020CCB0F71
:1017A00004BF49000CF1010CCCF12003A0EB0C00AC
:1017B00022FA03F302FA0CF241EA030100F10100FC
:1017C000704720F07F4C80EA030023F07F47ACEBAA
:1017D000070303F57C5300F0004003F1FF032DE9FC
:1017E00080494FEA154B09B44FEA144325EA0B4EE2
:1017F00024EA03480FF2042606EB132749083E7833
:101800005FEA320203FB0667C7F5000707FB06F62F
:101810004FEA54374FEAD64606F1020607FB066C3C
:10182000CCF1005C4FEA1C472CEA074C07FB06F49E
:101830000CFB06F504EB15464FEA961634BF002064
:101840004FF000404FEAD13706FB07FC4FEA1C4C33
:101850000CFB0BF7D21B03FB0CF761EB07010CFB36
:101860000EF7B0EB074072EB17420CFB08F734BFE2
:10187000A2EB0742B2EB074261EB17414FEA0C447F
:101880004FEA910706FB07FC4FEA1C4C0CFB0BF7D9
:10189000B0EBC74072EB573203FB0CF734BFA2EB3F
:1018A000C742B2EBC74261EB57310CFB0EF7B0EB0E
:1018B000C70072EB57720CFB08F734BFA2EBC702EC
:1018C000B2EBC70261EB5771039F4FEA816141EAB6
:1018D000921104EBCC044FEAD1374FEA826206FB47
:1018E00007FC42EA90124FEA80604FEA1C4C0CFB66
:1018F0000BF7D21B03FB0CF761EB07010CFB0EF798
:10190000B0EB074072EB17420CFB08F734BFA2EBB9
:101910000742B2EB074261EB17414FEA8C554FEAA1
:10192000910704EB9C2406FB07FC4FEA1C4C0CFBC4
:101930000BF7B0EBC74072EB573203FB0CF734BF29
:10194000A2EBC742B2EBC74261EB57310CFB0EF77B
:10195000B0EBC70072EB57720CFB08F734BFA2EB79
:10196000C702B2EBC70261EB577115EB4C254FEA8A
:10197000816141EA92114FEA82624FEAD13742EA2D
:10198000901206FB07FC44F100044FEA80604FEA26
:101990001C4C0CFB0BF7D21B03FB0CF761EB070194
:1019A0000CFB0EF7B0EB074072EB17420CFB08F78D
:1019B00034BFA2EB0742B2EB074261EB174115EBD4
:1019C0001C154FEA813141EA92414FEA823242EAE4
:1019D00090424FEA80304FEA0C7644F1000448EA26
:1019E00003434EEA0B484FF0000EB2EB080C71EBCC
:1019F000030724BF624639464EEB0E0E4FF0000B34
:101A00000018524149414BEB0B0BB2EB080C71EB48
:101A100003077BF1000B24BF624639464EEB0E0EE6
:101A20004FF0000B0018524149414BEB0B0BB2EB4E
:101A3000080C71EB03077BF1000B24BF62463946AB
:101A40004EEB0E0E51EA020718BF46F0010616EBE8
:101A50000E7655F1000254F1000103D5BDE889016D
:101A6000BDE80088BDE88901BDE80048B6195241CB
:101A700041EB0101A3F10103704780807F7E7D7CF3
:101A80007B7A7978777676757473727171706F6E10
:101A90006E6D6C6C6B6A6A696868676666656464BB
:101AA000636362616160605F5F5E5E5D5D5C5C5B45
:101AB0005B5A5A59595858575756565555555454B4
:101AC000535352525251515050504F4F4F4E4E4D12
:101AD0004D4D4C4C4C4B4B4B4A4A4A49494948485E
:101AE000484747474746464645454544444444439E
:101AF00043434342424242414141002B26D47700B6
:101B000021D01CB54FEA370703B44FF010004FF057
:101B100010014FF000000FBCBDE810400BF1010BAD
:101B2000BBF1010F08BF5FEA170722BF12F10102E4
:101B300011F101014FF0004143F1000300F00040BA
:101B400043EA00007047F9D35708DAE746EA064649
:101B500013F1400F4FEA16461FDD13F1200FDFBFD0
:101B600016430A46002120335B42C8D0C3F1200748
:101B700046EA064602FA07F74FEA164646EA07061D
:101B8000C3F1200722FA03F201FA07F721FA03F161
:101B90004FF0000342EA0702B1E746EA020646EACE
:101BA00006464FEA164646EA0106BCBF46EA064626
:101BB000360C4FF000034FF000024FF000019EE79B
:101BC0002DE9C048934630B491E8380007C831EA9F
:101BD000400C48BF34EA430C03D5FFF7F2FDFFF792
:101BE0008CFFF0BCBDE800882DE9C048934630B4B6
:101BF00091E8380007C810F0804F08BF13F0804FFD
:101C000003D100F005F8FFF778FFF0BCBDE80088CD
:101C100020F07F4780EA030023F07F4C07EB0C03A2
:101C2000A3F57C5300F00040A3F1FE0392F0000FF7
:101C300000F0B38095F0000F00F077802DE90149A6
:101C40004FEA11404FEA144621EA004800FB06FC27
:101C500024EA064708FB06F607FB08F800FB07F72F
:101C600018EB06484CEB164C4FEA124B18EB0748A2
:101C70004FEA15464CEB174022EA0B4E0BFB06FCD5
:101C800025EA06470EFB06F607FB0EFE0BFB07F7E1
:101C90001EEB064E4CEB164C4FF000061EEB074EAB
:101CA0004CEB174B18EB0B0840F1000018EB0E0B38
:101CB00058EB000840F100008F1A4FF000013CBFC4
:101CC000C943661B14BFB5EB040C00213CBFC943DC
:101CD000F61B4FEA17444EEA8E0E27EA04454FEAF8
:101CE0001C4704FB07622CEA074C05FB07F70CFBBB
:101CF00005F604FB0CFC16EB074642EB174216EB0D
:101D00000C4642EB1C421BEB060658EB020241411B
:101D100046EA9E0601D5BDE80189B619524141EB5C
:101D20000101A3F10103BDE801894FEA14454FEA1F
:101D3000114724EA054621EA074C05FB07F406FB98
:101D400007F70CFB06F105FB0CFC11EB074144EB1C
:101D500017444FEA124711EB0C4144EB1C4422EAB2
:101D6000074C05FB07F206FB07F70CFB06F605FB25
:101D70000CFC16EB074642EB174216EB0C4642EB07
:101D80001C456A1854F1000148BF7047B61952410A
:101D900041EB0101A3F10103704795F0000F37D02B
:101DA0004FEA11424FEA144721EA024624EA074C5F
:101DB00002FB07F106FB07F70CFB06F402FB0CFC29
:101DC00014EB074441EB17414FEA154714EB0C4461
:101DD00041EB1C4125EA074C02FB07F506FB07F720
:101DE0000CFB06F602FB0CFC16EB074645EB174511
:101DF00016EB0C4645EB1C42121951F1000148BF8D
:101E00007047B619524141EB0101A3F1010370473C
:101E10004FEA14454FEA114724EA054621EA074CE8
:101E200005FB07F106FB07F70CFB06F24FF0000677
:101E300005FB0CFC12EB074241EB174112EB0C4285
:101E400051EB1C4148BF7047921841EB0101A3F1CF
:101E50000103704702480168491C01607047000097
:101E6000040000200B48016841F001010160016895
:101E70008907FCD5002141600268074B1A400260C7
:101E8000816007490548086006494FF00060086016
:101E90007047000000100240FFFFF6FE00127A00BB
:101EA0000000002008ED00E008480188C9070CD0B8
:101EB000018821F00101018005480078002804D044
:101EC0000448016881F480510160704710040040AB
:101ED0003D0000200C08014010B5104800880F4953
:101EE000091D0988CAB20E49030704D0887840F05A
:101EF0000100887010BD8006FCD50878401CC0B277
:101F00004B78984204D1887840F00200887010BD68
:101F1000044B0C781A55087010BD000000380140C1
:101F20004C000020880F002010B5104800880F4991
:101F3000091D0988CAB20E49030704D0087840F089
:101F40000100087010BD8006FCD54888401CC0F315
:101F500008008B88984204D1087840F0020008708D
:101F600010BD044B4C881A55488010BD00440040F9
:101F70003E00002070050020490050EAC12018BF33
:101F800004204A0D18BF40F0010040F2FF72B2EB8E
:101F9000515F08BF40F00200012808BF05207047CC
:101FA00030380A2801D20120704700207047000015
:101FB00070B504462078002834D000220F211E4836
:101FC00000F03FFF607878B300221C4D0D212846B9
:101FD00000F037FFA07840B300220E21284600F021
:101FE00030FFE07830B300220F21284600F029FFAF
:101FF000134D22790C21284600F023FF62790E212F
:10200000284600F01EFFA2790021284600F019FFA3
:102010000C4DE0792978884203D000F0FDFBE0798F
:10202000287070BD0122C9E700E001E00122CCE781
:102030000122D2E70122D7E7000801400010014049
:10204000000C01403C0000201CB5002000900190D5
:1020500000F0E2FB6846FFF7ABFF1CBD10B5184867
:10206000816941F403718161416821F4404141F487
:1020700000414160134C00220121204600F0D6FEB1
:1020800000220421204600F0D1FE002201210E484A
:1020900000F0CCFE0D4C012020600A2000F0E4FD91
:1020A000206840F00800206020680007FCD4206809
:1020B00040F00400206020684007FCD410BD000000
:1020C0000010024000080140000C014008240140BB
:1020D00010B50A21B0FBF1F201FB120101EB410145
:1020E00007220A2806D2124C23688A4093431343DE
:1020F000236006E00E4B1B1F1C688A409443144368
:102100001C600B4A00211C3211600949243108600F
:1021100007480838016841F001010160044810389F
:1021200001688907FCD502483C30006880B210BDC8
:102130001024014070B50646002500243046FFF704
:10214000C7FF0544641CE4B2082CF7D3022000EB5F
:10215000D500C0F38F0070BD70B505460E4614461D
:102160000120FFF7E7FF20800420FFF7E3FF28802E
:102170000920FFF7DFFF308070BD00003EB5324917
:10218000CA6800920A690192496902912F4940F296
:10219000FF320B7800EB80019B1E072B4FD2DFE84C
:1021A00003F004101B26313B4500BDF90010BDF9BA
:1021B000022008446FF0130100F0EEFBADF80000C0
:1021C0003DE0BDF90220BDF900101044502200F09E
:1021D000E3FBADF8020032E09DF804109DF8052005
:1021E0000844002100F02CFD8DF8040027E09DF844
:1021F00005209DF804101044642200F021FD8DF8A4
:1022000005001CE0BDF8060000EB4100002100F0D5
:1022100017FDADF8060012E0BDF8080000EB410024
:10222000002100F00DFDADF8080008E0BDF80A003F
:1022300000EB4100002100F003FDADF80A00684604
:1022400000F078F93EBD0000580000200800002092
:1022500005490020C8708870487008700861C8601F
:1022600088604860704700007000002003480078D4
:10227000022801D301207047002070470800002089
:1022800070B5344EB17A01F00100C1F3400231461D
:10229000B1F900300C31002805D0B1F90240A34259
:1022A00001DD012500E000252B4C257028B1B1F996
:1022B0000050AB4201DA012300E000236370254B9C
:1022C0009B7820B14D79AB4201D9012500E0002572
:1022D000A57020B10879834201D2012000E00020DE
:1022E000E0702AB130894B89984201D2012000E088
:1022F000002020712AB1B388CD88AB4201D90123D7
:1023000000E0002363712AB1F28809898A4201D270
:10231000012100E00021A171E3710F490A688A6080
:102320004A68CA600B4D1835297801F08DFA0A4EBB
:10233000083630716978607901F086FA7071A97891
:10234000A07901F081FAB071E978E07901F07CFAC6
:10235000F07170BD580000200900002010B512482F
:1023600019210180372181704FF4967181804FF4DB
:10237000FA72C28002810022827212230C30038022
:102380002023438028230371502343714B00C380D3
:1023900001814FF4AF71418104480270FFF758FF8B
:1023A000BDE81040FFF76CBF580000200800002077
:1023B00000B5FFF75BFF074930B10878082806D061
:1023C000401CC0B2087000BD0220087000BD022091
:1023D000F8E700000800002000B5FFF747FF0649B6
:1023E00010B10020087000BD087810B100200870FE
:1023F00000BD0120FBE700000800002070B50D467D
:102400001446002804D02946204600F0FBFC08B101
:10241000002070BD281B00F2E7304FF47A71B0FB4A
:10242000F1F080B270BD000070B50646134D002477
:102430002878002805D03046696800F0E3FC00B138
:102440002C70687828B13046A96800F0DBFC00B138
:102450006C70A87828B13046E96800F0D3FC00B170
:10246000AC70E87828B13046296900F0CBFC00B1A7
:10247000EC70BDE87040FFF703BF00007000002063
:102480002DE9F047054688461746994621A128467A
:10249000FEF794FA214C98B121A12846FEF78EFA56
:1024A0004FF4E16680B11FA12846FEF787FA78B1A4
:1024B0001EA12846FEF782FA70B10020BDE8F08721
:1024C000164D241D78260BE0651C144C083407E0DB
:1024D000A51C124C0C3403E0E51C104C10343C26B7
:1024E000B8F1000F04D00FB1B74201D90020E5E7E1
:1024F00085F80080B8F1000F0AD007EB4700C0EB69
:10250000C71009EBC0002060FFF7BAFE0120D5E735
:102510000020F8E750554D500000000070000020EA
:1025200046414E004C414D50000000004245455090
:102530000000000010B5B0F9002012F1140F18DBF4
:10254000B0F90210502914DC8A4212DC01796429A6
:102550000FD84279642A0CD891420AD8C1884FF426
:102560008062914205D20189914202D24189914211
:1025700001D3002010BD05490268CA6042680A61A3
:1025800080684861FFF77CFE012010BD58000020E4
:102590000648816944F204021143816104480168DC
:1025A00021F47F6141F496610160704700100240A0
:1025B0000408014070B53A48816941F01D0181610C
:1025C0003848416821F0E06141F000714160364CCB
:1025D00000220C21204600F034FC00220E2120466F
:1025E00000F02FFC00221146204600F02AFC2F4D5F
:1025F00001220F21284600F024FC2D4E01220D213E
:10260000304600F01EFC01220E21304600F019FC7D
:1026100001220F21304600F014FC02220C2120463A
:1026200000F006FC02220E21204600F001FC0222EE
:102630000021204600F0FCFB02220F21284600F07A
:10264000F7FB02220D21304600F0F2FB02220E21A0
:10265000304600F0EDFB02220F21304600F0E8FB8F
:1026600001220721204600F0ECFB01220621204632
:1026700000F0E7FB08220721204600F0D7FB0822E4
:102680000621204600F0D2FB08220321204600F05C
:10269000CDFB2046BDE870400122032100F0D1BBF4
:1026A0000010024000000140000C01400008014001
:1026B0000010014070B504465321012021704122D1
:1026C00002216270A170E070224D201DA98900F0E6
:1026D000C7FFE989A01D00F0C3FF1F4801884A1CFD
:1026E000028004F1080000F0BBFF1C4D04F10A0059
:1026F000298800F0B5FFA8782073A98804F10D009F
:1027000000F0AEFFE98804F10F0000F0A9FF29896D
:1027100004F1110000F0A4FFA87AE074104A1079C7
:1027200008B1012000E00020517909B1022100E048
:1027300000210843917909B1042100E000210843F8
:10274000D17909B1082100E0002108431521207545
:10275000084670BDC4010020200000205800002061
:102760001100002070B504460D461646002000F00A
:10277000B1FD04F07F0001F06FFA002405E00020B5
:1027800001F06AFA2855641CE4B2B442F7D3BDE8FC
:102790007040012000F09EBD70B504460D461646FF
:1027A000002000F097FD44F0800001F055FA00246D
:1027B00004E0285D01F050FA641CE4B2B442F8D39E
:1027C000BDE87040012000F085BD000010B50E4846
:1027D000C16941F00201C1610C49002008800B4928
:1027E0000C310880091D088009490870094C002235
:1027F0000C21204600F025FB20460222BDE81040B7
:102800000C2100F015BB0000001002400004004045
:102810003D0000200008014030B416490A7890427B
:102820001CD00870144A144C0021131F103CB8B17E
:102830001248134D0068B0FBF5F00F4D401E1835DF
:1028400028802D1D40F2935028800120151D2880DE
:10285000118018800B4A41071160208030BC7047FE
:10286000218019801180002230BC0C21064800F024
:10287000E8BA00003D0000201004004000000020E5
:1028800040420F0000E100E00008014010B5254B78
:102890009C78002C41D05B789A4240D1224AB0F912
:1028A0000030B2F90040A34239D183789478A34232
:1028B00035D183889488A34231D1C388D488A34278
:1028C0002DD103891489A34229D1807A927A90422A
:1028D00025D11548B1F900200C30B0F900309A42EA
:1028E0001DD1B1F90220B0F902309A4217D10A790C
:1028F00003799A4213D14A7943799A420FD1CA880F
:10290000C3889A420BD10A8903899A4207D149891F
:102910004089814203D1012010BD002010BD00205C
:1029200010BD000048000020700F00207CB529E099
:10293000174C521CA3F14105192D05D83F3BDBB2C2
:1029400003EB83031C4407E0303B092B04D8104CF5
:1029500003EB83038C341C4400236D46E65CEE5489
:102960005B1CDBB2052BF9D300238DF80530094B36
:10297000009C03EBC0130B441C60BDF804409C801A
:10298000891DC9B21378002B01D07A29D0D37CBD20
:10299000C045000870070020884201DA08467047E9
:1029A000904201DD1046704700B270470249002096
:1029B000488002490870704728000020CC0200209F
:1029C00001B501226946002001F028FB08BD000086
:1029D000F8B50A4C00260A4D09E06088FF2806D2A7
:1029E000411C9DF8002089B261802A546E546846CB
:1029F00000F0B4F90028F0D1F8BD00002800002054
:102A0000CC020020F8B501F00BF8014611B11AA074
:102A100000F02AFD00251F4E1F4C27E09DF80010F6
:102A20000A2902D0207808BB13E0207870B96088AA
:102A300060B13554311811F8011C0D2903D1401E25
:102A400080B260803554134800F02EFD65802570FB
:102A50000CE06088B0F59F7F03D8421C628031543F
:102A600004E0012020700DA000F0FEFC684600F09C
:102A7000DFFF0028D2D1F8BD4552522C302C5541F1
:102A800052545F4552524F522C434F44453D257599
:102A90000D0A0000840000201A0000204552522C2C
:102AA000302C4C494E455F544F4F5F4C4F4E470DB5
:102AB0000A000000082900D3001D70472DE9F04FDF
:102AC000824689B008460024002701973BA1FDF704
:102AD000F7FD83460DF10C080DF108093EE03D219C
:102AE0005846FDF7F3FDB0B10770451C34A15846B8
:102AF000FDF764FFA0B1284600F0CAFB0546FF2D94
:102B000001D0042C16D35A4651462EA000F0ACFC3E
:102B100009B0BDE8F08F514631A000F0A5FCF7E701
:102B200001A9284600F0DEFB98B9514631A000F01B
:102B30009BFCEDE704EB440008EB400605225946F8
:102B40003046FDF710FF77712046641CE4B209F8A7
:102B500000501AA10020FDF7B3FD8346BBF1000F22
:102B6000BDD10CB1002514E051461DA000F07CFC45
:102B7000CEE701F01FFA0346019819F8051082B25A
:102B800005EB450008EB4000FFF77AFC68B16D1CCF
:102B9000EDB2A542EDD31F48FFF70AFA51461EA039
:102BA00000F062FC00F044FEB2E705EB450008EBE4
:102BB000400251461CA000F057FCA9E72C00000081
:102BC00054544C004552522C25732C4241445F56BC
:102BD000414C55452C4649454C443D25730D0A0052
:102BE0004552522C25732C4D414C464F524D454475
:102BF0000D0A00004552522C25732C4241445F5669
:102C0000414C55452C4649454C443D54544C0D0AC5
:102C1000000000001100002041434B2C25732C4381
:102C200054524C0D0A0000004552522C25732C5270
:102C3000414E47452C4649454C443D25730D0A00FD
:102C4000884201DA08467047904201DD104670471D
:102C500080B2704703490A680B689B1A8342FBD312
:102C6000704700000400002000B5024600F00CFB95
:102C7000014600F009FB401A80B29042F9D300BD32
:102C800010B500F063F80122BDE8104000210148B2
:102C900000F0D7B8000801402DE9FC4106460F4678
:102CA00000F054F8244C00221146204600F0C9F8E8
:102CB0001420FFF7CFFF01220021204600F0C1F8C9
:102CC0001E20FFF7D1FF00F039F86421002001F049
:102CD00001FA30B36421012001F0FCF908B364214A
:102CE000002001F0F7F9E0B100246D46281900F04A
:102CF000CDFCC0B1641CE4B2052CF7D39DF80000F4
:102D00009DF801109DF802209DF8033001441A44FB
:102D100011449DF80420C9B2914206D00020BDE8BC
:102D2000FC810020FBE70020F9E738709DF80200E5
:102D300030800120F3E70000000801400422002158
:102D4000014800F073B8000000080140062200218D
:102D5000014800F06DB800000008014008494A88A9
:102D60008B889A4201D100207047064A8B88D25C3A
:102D700002708888401CC0F30800888001207047DA
:102D80003E0000207005002010B50F498A6942F00E
:102D900004028A61CA6942F40032CA610B490A68B6
:102DA00022F47F4242F496420A6000F055FE084940
:102DB00042F22C0008800749202008700649402074
:102DC000C1F8000110BD00000010024000080140E1
:102DD0000C44004026E400E004E000E003490A88D7
:102DE0001206FCD50149091D0880704700440040C7
:102DF00000B5034602E05B1CFFF7F0FF18780028DF
:102E0000F9D100BD401AC017401C704770B50C4680
:102E100015462146FFF74EFE6107C90E02680F23D3
:102E20008B409A438D402A43026070BDFFF7EEBF8E
:102E3000FFF7ECBF806801228A40104000D00120DB
:102E4000704701238B40002A01D003617047436122
:102E50007047000010B501460348FDF741FC00280B
:102E600000D0012010BD0000CC02002070B5DCB005
:102E700029488179427903792848847ACDE9044345
:102E8000CDE906210289C38881888478CDE9004193
:102E9000CDE90232B0F90030214AF02120A8FDF737
:102EA00091FA204920ABA1F1BE06A1F15B04B6F86E
:102EB0008C204FF4D275CDE90042CDE90303A1F196
:102EC00030030291184A294603F5B570FDF77AFAE6
:102ED000002800DA0020A84201DB40F2A310134DC5
:102EE000A880B6F88C000090234611A2602108A8A3
:102EF000FDF768FA41F28834214608A800F0ACFCDE
:102F0000084A0520263210700020287001F052F87F
:102F10002044A8605CB070BD110000205800002063
:102F2000F0470008920200206C47000828000020AB
:102F300041542B43495053544152543D2254435021
:102F4000222C222573222C25750000000349032022
:102F5000487008700020488070470000440000203E
:102F600070B5204D07212846FFF764FF044606216F
:102F70002846FFF75FFF08B1022100E000210C4363
:102F80000020194B002559788C420AD159884EF6F9
:102F90006022914201D2143159805988282904D0E5
:102FA0000BE05C705D80002070BD1C7014B1012CC2
:102FB00002D002E0042000E003204FF42F76B1425B
:102FC00002D1022C00D10220032CEDD11A78032A61
:102FD000EAD0022A02D1B14200D2012003211970A5
:102FE0005D8070BD000C01404400002008480021B5
:102FF00001608160C16007494160092101720A21B5
:1030000041721E21418101218181C18100F0D6BE22
:10301000C4010020400ECF1930B593B000F09EFFE0
:103020001B4D2878002830D0402103A800F014FF61
:10303000042813D39DF80C0053280FD19DF80D00E0
:1030400041280BD19DF80F00052807D111A003C816
:10305000CDE90101082101A800F056FF00F0AAFF08
:103060000E4C6168411A688900EB4002C2EBC01047
:10307000B1EBC00F09D300F09DFF606003A8FFF71C
:1030800019FB014603A800F03FFF13B030BD00005C
:10309000C40100205341020600000000200000206F
:1030A00010B50D4C2070002810D0012000F01CFF3E
:1030B0001420FFF7CFFD00F059FE00280BD0627AF4
:1030C000217A6068BDE8104000F0D4BDBDE8104032
:1030D000002000F009BF10BDC40100201CB508A0ED
:1030E00003C8CDE9000108480078002806D008216F
:1030F000684600F009FF08B101201CBD00201CBD7E
:103100005341020500000000C401002088B00020E7
:10311000079006900590049003900290FEF7A2FE9F
:10312000FFF748FAFFF752FB00F04AFFFFF716F9E6
:10313000FEF78AFFFEF792FFFFF7A2FDFFF706FFFB
:1031400000F0A0FB00F0E0F8FFF750FF00F0DEFF1A
:103150003FA144A000F088F94FF4FA76464CB50040
:10316000FFF750FCFFF758FF01F010F8642102A8A8
:1031700000F012FF30B100F01DFFFFF755F93F4896
:10318000FEF716FF142107A800F006FFD8B1FFF7DD
:10319000E7FE012806D0022807D0032808D004281B
:1031A0000AD00DE0FFF704F90AE0FFF715F907E090
:1031B0000120FEF7E3FF03E04FF0FF30FEF7DEFFF4
:1031C0002E48FEF7F5FE314606A800F0E5FE70B188
:1031D000294AA11D0832201DFEF7BEFFA07A40F04B
:1031E0000200A072FFF74CF82448FEF7E1FE2946E2
:1031F00005A800F0D1FE98B1694601A8FFF74CFD83
:1032000048B1BDF8040020809DF80000A070A07AAD
:1032100040F00100A072FFF733F81848FEF7C8FE2F
:10322000FA2104A800F0B8FE28B115481549027823
:10323000114800F0ADF8294603A800F0ADFE0028C3
:103240008ED00E4A0F490C4800F04EFB88E7000074
:10325000536D617274416772692056312E312E3080
:1032600000000000257320402030783038303030A6
:103270003030300D0A0000005800002011000020FE
:1032800008000020640000204FF08040808C7047D0
:1032900010B504460BA12046FDF790FB58B10BA1D9
:1032A0002046FDF78BFB40B109A12046FDF786FBC8
:1032B00028B1FF2010BD002010BD012010BD02204C
:1032C00010BD00004155544F000000004F4646001D
:1032D0004F4E0000024608210148FFF7B2BD000032
:1032E0000008014038B505460C460A2269462846C2
:1032F000FDF7AEF92060287810B10098007808B189
:10330000002038BD012038BD70B51A48816941F0F0
:1033100008018161C16941F48001C16116480168F9
:1033200041F47F4101601549242008801349B420ED
:10333000183108802520091D088010480124001F2D
:103340000480051529460E48FDF7C4FAFF222946D8
:103350000C48FDF7B7FA0C48047000218170002476
:103360000A4D285DFFF72CFB641CE4B2172CF8D340
:1033700070BD000000100240040C014004580040E1
:1033800070070020700B0020480000207E460008D7
:103390002DE9F05F81468A4693465A465146484693
:1033A000FFF774FA00282FD15A465146484600F0DC
:1033B000ADF90024154F07F5806807EBC41508EB3D
:1033C000C41628783178884205D1314628468022B3
:1033D000FDF798F968B10021204600F019F8294658
:1033E0008022402000F01AFE294630468022FDF758
:1033F00024FA641CE4B2082CDFD35A4651464846EE
:10340000BDE8F05F00F06AB9BDE8F09F70070020EA
:1034100010B50C4640F0B000FFF7D2FA04F00F00F0
:10342000FFF7CEFA102040EA1410BDE81040FFF775
:10343000C7BA000010B5044684F001020F21074806
:10344000FFF7FFFC064804700021417400F0B2FD54
:10345000044900F5FA60886010BD0000000C0140CE
:10346000B8020020280000200FB430B5D1B055AB11
:103470004FF4A075294601A8549AFCF773FF04463F
:103480000020009020000BD4AC4200DB6C1E002317
:1034900001AD03E0E85C00F01DFA5B1CA342F9DB20
:1034A00051B030BC5DF814FB7CB53EA1FDF708F9C6
:1034B00005463CA10020FDF703F906463AA100208D
:1034C000FDF7FEF8044685B17EB138A12846FDF728
:1034D00075FA78B136A12846FDF770FAB8B136A171
:1034E0002846FDF76BFAF8B124E0BDE87C4033A034
:1034F000FFF7BABF2CB121463046BDE87C4000F052
:10350000C1BA3146BDE87C4031A0FFF7ADBF2CB158
:1035100021463046BDE87C40FFF7D0BA3146BDE8D1
:103520007C402BA0FFF7A0BF24B12EA12046FDF7C1
:1035300045FA28B120A12846FDF740FA40B10DE038
:1035400031462AA0FFF790FFBDE87C4000F070B93B
:1035500024B12AA12046FDF731FA78B129A12846E5
:10356000FDF72CFAA8B129A12846FDF727FA80B16A
:103570003146BDE87C4027A0FFF776BF022000213E
:10358000CDE9001001231A46314628A0FFF76CFF51
:103590007CBD02B0224631462846BDE8704000F0AE
:1035A00027BF00002C00000000000000534554001D
:1035B0004354524C00000000474554004552522CE1
:1035C000302C4D414C464F524D45440D0A000000F1
:1035D0004552522C25732C4D414C464F524D45447B
:1035E0000D0A0000535441544500000041434B2C48
:1035F00025732C4745540D0A00000000494E464FE4
:10360000000000004C4F524100000000574946495D
:10361000000000004552522C25732C554E4B4E4F46
:10362000574E5F434D440D0A0000000041434B2CB0
:1036300025732C494E464F2C46573D25752E257532
:103640002E25752C50524F544F3D25752C4D43550A
:103650003D53544D33324631303343380D0A000068
:103660000A0A02704170704710B504460020FFF747
:1036700031FE04F07F0000F0EFFA002000F0ECFAD9
:1036800004460120FFF726FE204610BD2DE9F0413B
:103690000746002400256421012000F01BFDC8B16D
:1036A000FFF7F2FD06466421002000F013FD98B1FB
:1036B0006006040EFFF7E8FD801B80B22D2801D9BB
:1036C00044F001046D1CEDB2082DE4D33C700120E0
:1036D000BDE8F0810020FBE70020F9E710B5094BB9
:1036E0005A70094A046814604468546080689060A5
:1036F0000868D0604868106188685061012098703F
:1037000010BD000048000020700F002070B586B08A
:1037100005460C4616464FF47F713248FDF7DAF83D
:1037200076B3B4F90230B4F900202FA16846FCF753
:1037300033FE00216A460846FFF7F8F863792279DC
:103740002BA16846FCF728FE6A4600210220FFF7FD
:10375000EDF82389E28828A16846FCF71DFE6A4639
:1037600000210420FFF7E2F8628925A16846FCF7F2
:1037700013FE6A4600210620FFF7D8F806B070BD98
:10378000AB78B5F900201FA16846FCF705FE0021C3
:103790006A460846FFF7CAF8AA881CA16846FCF7E3
:1037A000FBFD6A4600210220FFF7C0F82B89EA885A
:1037B00018A16846FCF7F0FD6A4600210420FFF7D7
:1037C000B5F8AA7A032A0AD015A316A16846FCF711
:1037D000E3FD6A4600210620FFF7A8F8CEE713A311
:1037E000F3E7000070070020543A25642D2564009B
:1037F000483A25752D257500412575204C25750005
:1038000053257500542564204825750041495225EB
:10381000750000004C257520534F494C257500005C
:103820002D2D000056256420257300004F4B00000D
:10383000024A0349034800F057B800001100002075
:103840006400002058000020022903D0012900D183
:10385000002070470120704770B505460C46FFF701
:10386000A5F82846FFF7C4FA04A0FFF7C1FA00F054
:10387000A1FB03492044886070BD00000D0A0000D0
:103880002800002070B50F4800684FF49621B0FB67
:10389000F1F4B0FBF1F201FB12000001B0FBF1F515
:1038A000FEF776FE084945EA04100880091D42F239
:1038B0002C0008800549202008700549C1F8000146
:1038C00070BD0000000000200838014025E400E041
:1038D00004E000E003490A881206FCD50149091DED
:1038E00008807047003801402DE9F04389B0074651
:1038F0000E46144600F05EFB814600F075FD8046E2
:1039000000F046FB054670793179B6F90220B6F928
:103910000030CDE90232CDE904103889F988CDE9CB
:103920000010BB88BA78B7F900103648FFF79CFD45
:103930006278E178A0782378CDE90132CDE90301FE
:10394000B87A009073893289F1882F48FFF78CFD8F
:103950002E4E4A467078B168FEF750FD0746307823
:103960004A467168FEF74AFD04AB7178327883C32A
:10397000274903924868421C4A60E179CDE9010970
:103980000091A379627921792248FFF76DFDF078E3
:103990004A463169FEF732FD0446B0784A46F1687E
:1039A000FEF72CFD02460120022100230190009425
:1039B000CDE903310290F378B1781748FFF754FD51
:1039C000D5E90210EA88B5F90430CDE90532CDE930
:1039D00007102A78B5F902002969D8F80C30CDE92A
:1039E0000132CDE90310D8F808000090B8F804308F
:1039F000B8F9022098F800100848FFF735FD09B023
:103A0000BDE8F083B8490008D048000870000020E5
:103A10004C000020144900086C4900085C4800086C
:103A20000249887800228A70704700004C0000200C
:103A300007490A784B789A4201D100207047054A1D
:103A40004B78D25C02704878401C48700120704767
:103A50004C000020880F0020084909680001B1FBD4
:103A6000F0F2B1FBF0F300FB13110901B1FBF0F030
:103A7000034940EA0210088070470000000000205F
:103A8000084400407FB506460A4646480168019151
:103A90004168029180680390002443A11046FCF71E
:103AA0000FFE054668E03D212846FCF70FFE002882
:103AB00036D0002100F8011B6946FFF713FC0028EF
:103AC00033D03AA12846FCF779FF002833D039A13A
:103AD0002846FCF773FF002831D038A12846FCF7B0
:103AE0006DFF00282FD037A12846FCF767FF00287C
:103AF0002DD036A12846FCF761FF00282BD035A138
:103B00002846FCF75BFF002829D034A12846FCF7A3
:103B100055FF40B32A46314632A0FFF7A5FC7FBDD2
:103B2000314638A0FFF7A0FC7FBD2A4631463AA0B7
:103B3000FFF79AFC7FBD0098ADF8040016E00098EE
:103B4000ADF8060012E000988DF808000EE000982D
:103B50008DF809000AE00098ADF80A0006E0009828
:103B6000ADF80C0002E00098ADF80E0001240EA1A3
:103B70000020FCF7A5FD0546002D94D16CB101A8ED
:103B8000FEF7D8FC48B12B48FEF712FA31462AA0BE
:103B9000FFF76AFCFFF74CFE7FBD31462AA0FFF716
:103BA00063FC7FBD640000202C000000544D494E92
:103BB00000000000544D415800000000484D494E9F
:103BC00000000000484D4158000000004149524D9E
:103BD000415800004C4D494E00000000534D494EE5
:103BE000000000004552522C25732C554E4B4E4F71
:103BF000574E5F4B45592C4649454C443D25730D66
:103C00000A0000004552522C25732C4D414C464F62
:103C1000524D45440D0A00004552522C25732C424A
:103C200041445F56414C55452C4649454C443D2541
:103C3000730D0A001100002041434B2C25732C53B7
:103C400045540D0A000000004552522C25732C5299
:103C5000414E47450D0A000005490A899207FCD5E7
:103C600088810889C007FCD08889C0B270470000ED
:103C7000003001402DE9F04706460F469046DFF838
:103C8000DC9099F80100122802D00020BDE8F087EE
:103C9000334834493044884206D2062F04D30C2FCF
:103CA00002D8B8F1110F01D90020EFE780210120DF
:103CB00000F046FC710BF0042B4A0023FCF7DAFA03
:103CC00004460D46200C40EA0540C1B2062000F033
:103CD00037FC200A40EA0560C1B2072000F030FC42
:103CE000E1B2082000F02CFC00210E2000F028FC9E
:103CF00000210F2000F024FC23210C2000F020FCE8
:103D000072211D2000F01CFC042404EB0710C1B23A
:103D10001E2000F015FC0421262000F011FC0021DB
:103D2000202000F00DFC0821212000F009FC1221C8
:103D3000392000F005FC08F1020808F0FF0040F00F
:103D40008001092000F0FCFB8521012000F0F8FB38
:103D5000C9F8106089F80040012097E7881000201A
:103D600080E58FE7C1C2DA060048E80110B5114CC2
:103D700000220B212046FFF764F80220FEF76AFFBD
:103D800001220B212046FFF75CF80A20FEF762FFB4
:103D90004220FFF769FC08494870122805D0052029
:103DA00008700120C880002010BD0220087001208A
:103DB00010BD0000000801408810002070B52048A8
:103DC000816941F20C02114381611E4C0B220521D5
:103DD0002046FFF72DF8042206212046FFF726F89B
:103DE0000B2207212046FFF723F802220821204654
:103DF000FFF71EF802220B212046FFF719F8124D9B
:103E0000022209212846FFF713F80120FFF762FA82
:103E100001220B212046FFF714F801220921284630
:103E2000FFF70FF809494FF455700880142108482E
:103E3000FCF772FD0648002101700649016170BD62
:103E40000010024000080140000C01400030014019
:103E500088100020400ECF192DE9F04107460E468C
:103E6000204D2878032808D01220FFF7FDFB0446D8
:103E7000600604D40020BDE8F0810020FBE7214665
:103E8000122000F05DFBA00603D50220E880002090
:103E9000F1E71320FFF7E8FB0446B44200D93446AB
:103EA0001020FFF7E1FB01460D2000F049FB224600
:103EB00039460020FEF756FC1920FFF7D5FB40B22B
:103EC00000EBC00101EB00100A2190FBF1F0A8808B
:103ED0001A20FFF7C9FBA4386880E868401CE86036
:103EE0002046C8E78810002010B5044684F001027F
:103EF00009210348FEF7A5FF0248047010BD000029
:103F0000000C01408810002070B506460D46124C8A
:103F10002178022903D0042901D0002070BD81211D
:103F2000012000F00DFB00210D2000F009FB2A46C6
:103F300031460020FEF730FC2946222000F000FB2D
:103F4000FF21122000F0FCFA8321012000F0F8FA92
:103F500003202070012070BD8810002010B50B4C8C
:103F60002078032811D11220FFF77EFB00070CD523
:103F70000821122000F0E4FAA068401CA06085210E
:103F8000012000F0DDFA0420207010BD8810002010
:103F90000048704788100020054A12680368D31A49
:103FA0008B4202D30260012070470020704700005E
:103FB0000400002001480068704700000400002051
:103FC000124801684FF47A70B1FBF0F0401EB0F176
:103FD000807F09D24FF0E02250610D4BF020187025
:103FE00000209061072010610A48C26942F0010276
:103FF000C2610948B1FBF0F1491E000601854FF688
:10400000FF718185012101807047000000000020C0
:1040100023ED00E00010024040420F002DE9F04780
:1040200004460D46164622480078002802D10CB1FD
:10403000BDE8F0871F4F388840F480703880DFF883
:104040007490012109F11409484600F035F880B157
:10405000A9F104087820A8F800000221484600F0E1
:104060002BF840B109F104000088A8F800400024B2
:104070000DE00020DCE70020DAE78021484600F070
:104080001BF888B1285DA8F80000641CA4B2B442F3
:10409000F3D30421484600F00FF838B1388840F4D3
:1040A000007038800120C3E70020C1E70020BFE78F
:1040B0004800002000580040054A03880B4201D107
:1040C000521EFAD10AB1012070470020704700004B
:1040D000400D03002DE9F04105460C46FFF7D4F8EA
:1040E0000646094F08E0FFF7CFF8801B80B2A042D8
:1040F00002D90020BDE8F08100213846FEF79AFE83
:10410000A842F0D10120F5E70008014010B5E221F6
:104110001448FCF7DFFB13481421E430FCF7FCFBE8
:10412000104841F28831A0F88C101E21A0F8E01050
:104130000DA18E30FCF712FB1248816941F0080195
:104140008161114C02220F212046FEF771FE0122EF
:104150000F212046FEF775FEBDE810404FF4E13018
:10416000FEF712BED40100202F6170692F76312F27
:10417000696E676573742F74656C656D65747279AB
:104180000000000000100240000C01402DE9F04F3B
:104190009FB0FFF70FFF0446FEF71AFCDFF8BCB133
:1041A0009BF8000000281CD00BF1E40501272878BB
:1041B0006B4E4FF0040A4FF0020942F210780728C4
:1041C0000FD2DFE800F00E04113B5A72C200B06853
:1041D000201A06D44FF47A7162A0FFF73DFB85F8F0
:1041E00000901FB0BDE8F08F5FA0FEF733FEF0B186
:1041F0002F744FF47A715DA0FFF72EFB9BF801003E
:104200005B4680B155485B1C2230009059A2782152
:1042100001A8FCF7D7F843F6982101A8FFF71CFB8B
:1042200003202870DDE785F800A06F74D9E7B06837
:10423000201AD6D4AF8007202870D2E752A0FEF70C
:1042400009FE18B948A0FEF705FE20B16F7485F885
:1042500000A0F460C5E74FA0FEF7FCFD10B9B06800
:10426000201ABED4A5F80490E868401CE86004EB6E
:104270000800306106202870B3E7687C0028B0D0C1
:104280009BF863000028ACD0F068211ABBF8E0006E
:1042900000EB4002C2EBC010B1EBC00FA1D3F46041
:1042A0001FB0BDE8F04FFEF7E1BD3078B8B93BA0D4
:1042B000FEF7D0FD18B93BA0FEF7CCFD78B1B3886E
:1042C0003DA2202117A8FCF77DF84FF4FA6117A84A
:1042D000FFF7C2FA377004F5FA60B06012E0307888
:1042E00001280FD11D483E21F830FCF7EFF948B105
:1042F000FEF75CFB3448FEF77BFD86F8009004F582
:10430000FA50B0603078022809D130A0FEF7A2FD43
:1043100028B1A868401CA86085F800A061E72DA01E
:10432000FEF798FD30B91BA0FEF794FD10B9B068F8
:10433000201A8FD4E868401CE8600320A88004EBB2
:1043400008003061062028704BE73069201A93D4AA
:104350001FB00120BDE8F04FFFF76CB8D40100207A
:1043600028000020415400004F4B000041544530CC
:104370000000000041542B43574A41503D22257311
:10438000222C2225732200005749464920474F54CA
:10439000204950004641494C00000000434F4E4E1A
:1043A00045435400414C524541445920434F4E4EE1
:1043B000454354454400000041542B434950534564
:1043C0004E443D2575000000CC03002053454E446B
:1043D000204F4B004552524F5200000001490870D7
:1043E000FFF728B8D401002000487047B802002029
:1043F000F8B507460D461446002C0DD028A13846C6
:10440000FCF7DCFA04F1090658B127A13846FCF79D
:10441000D5FA00282AD03EE0294625A0FFF724F847
:10442000F8BD28A12046FCF7C9FA30B1092227A11E
:104430002046FCF7B7F950B12DE0FEF74FFE08B16A
:1044400025A000E029A02946FFF70EF8F8BD69462F
:104450003046FEF747FFF0B1009800B10120FEF7AB
:104460001FFE294626A0FEF7FFFFF8BD092217A16F
:104470002046FCF797F970B969463046FEF732FFDF
:1044800048B1009800B10120FFF7A8FF294621A0FC
:10449000FEF7EAFFF8BD294623A0FEF7E5FFF8BDC9
:1044A0004C4F5241000000005749464900000000AF
:1044B0004552522C25732C4D414C464F524D45448C
:1044C0000D0A000050494E4700000000504F57456C
:1044D000522C4F4E3D00000041434B2C25732C4C79
:1044E0004F52412C50494E470D0A00004552522C64
:1044F00025732C4C4F52412C4F46460D0A000000AC
:1045000041434B2C25732C4C4F52412C504F574557
:10451000520D0A0041434B2C25732C574946492C18
:10452000504F5745520D0A004552522C25732C55B9
:104530004E4B4E4F574E5F434D440D0A0000000056
:1045400070B504460D460020FEF7C4FE44F080001E
:10455000FFF782FB2846FFF77FFBBDE87040012094
:10456000FEF7B8BE10B500290AD00878002807D099
:1045700005487844FCF722FA002801D0002010BD3D
:104580000248784410BD0000AE040000A6040000FC
:1045900010B500290AD00878002807D005487844CB
:1045A000FCF70CFA002801D0002010BD0248784426
:1045B00010BD0000920500008A050000FCF716BE41
:1045C000000000000000005F00007E1111117E7FDE
:1045D000494949363E414141227F4141221C7F49A0
:1045E0004949417F090909013E4149497A7F080843
:1045F000087F41417F41412040413F017F08142213
:10460000417F404040407F020C027F7F0408107FC2
:104610003E4141413E7F090909063E4151215E7FED
:1046200009192946464949493101017F01013F40A5
:1046300040403F1F2040201F7F2018207F63140828
:104640001463030478040361514945433E514945CD
:104650003E00427F400042615149462141454B3175
:104660001814127F1027454545393C4A4949300105
:10467000710905033649494936064949291EAE20C4
:1046800002A1C8817FA6A83FD300D580D9F1DA1254
:10469000DB408D14AF0400000800000000000000A3
:1046A00002000100001000000000000000000000F7
:1046B0003031323334353637383941424344454658
:1046C0004030580030313233343536373839616252
:1046D000636465664030780002400000000000A07E
:1046E0000000000005400000000000C800000000BD
:1046F0000C4000000000409C000000001940000039
:104700000020BCBE0000000034400000BFC91B8E6A
:1047100000000004B5400000504BCFD06607E2CF48
:10472000010000006C4100003E8251AADFEEA73478
:1047300001000000D9420000DCB5A0E23A301F972A
:10474000FFFFFFFFB4450000FD25A0C8E9A3C14F4E
:10475000FFFFFFFFFF3F000000000080000000009F
:10476000FF3F00000000008000000000504F535445
:1047700020257320485454502F312E310D0A486F94
:1047800073743A2025733A25750D0A436F6E74656C
:104790006E742D547970653A206170706C69636134
:1047A00074696F6E2F6A736F6E0D0A582D536D61A9
:1047B0007274416772692D546F6B656E3A20257370
:1047C0000D0A436F6E74656E742D4C656E67746868
:1047D0003A2025640D0A436F6E6E656374696F6ECF
:1047E0003A20636C6F73650D0A0D0A257300000093
:1047F0007B226E6F6465223A312C226677223A2240
:10480000312E312E30222C2274223A25642C22683B
:10481000223A25752C22616972223A25752C226C68
:1048200069676874223A25752C22736F696C223A85
:1048300025752C2276616C6964223A25752C2270CC
:10484000756D70223A25752C2266616E223A2575A7
:104850002C226C616D70223A25757D0057535441AE
:1048600054453D25752C57525353493D25642C57CB
:104870004552523D25752C5754584F4B3D256C756C
:104880002C5754584641494C3D256C752C4C53547B
:104890004154453D25752C4C465245513D256C757E
:1048A0002C4C525353493D25642C4C534E523130BD
:1048B0003D25642C4C4552523D25752C4C54583D99
:1048C000256C752C4C52583D256C750D0A00000066
:1048D0004149524D41583D25752C4C4D494E3D2581
:1048E000752C534D494E3D25752C56414C49443D40
:1048F00025752C4C4544313D25752C4C4544323DA5
:1049000025752C4C4544333D25752C4C4544343D90
:1049100025752C0050554D503D25752C46414E3D7A
:1049200025752C4C414D503D25752C424545503D3B
:1049300025752C5345513D256C752C555054494DCA
:10494000453D256C752C504D4F44453D25752C50EB
:1049500052454D3D25752C464D4F44453D25752C02
:104960004652454D3D25752C000000004C414D50F0
:104970004D4F44453D25752C4C52454D3D25752CDC
:10498000424D4F44453D25752C4252454D3D2575C0
:104990002C46574D414A3D25752C46574D494E3DB5
:1049A00025752C465750415443483D25752C50528F
:1049B0004F544F3D25752C00444154412C543D2506
:1049C000642C483D25752C4149523D25752C4C4998
:1049D0004748543D25752C534F494C3D25752C5463
:1049E0004D494E3D25642C544D41583D25642C487D
:1049F0004D494E3D25752C484D41583D25752C009F
:104A00004C4B00080000002058000000280100085E
:104A1000A44B000858000020A8160000440100081C
:104A20001001000043000000F8FFFFFF004040407D
:104A30004040404040404141414141404040404071
:104A4000404040404040404040404040400502021D
:104A500002020202020202020202020202202020DC
:104A60002020202020202002020202020202909038
:104A70009090909010101010101010101010101036
:104A8000101010101010101002020202020288888A
:104A90008888888808080808080808080808080896
:104AA000080808080808080802020202400000007E
:104AB00000000000000000000000000000000000F6
:104AC00000000000000000000000000000000000E6
:104AD00000000000000000000000000000000000D6
:104AE00000000000000000000000000000000000C6
:104AF00000000000000000000000000000000000B6
:104B000000000000000000000000000000000000A5
:104B10000000000000000000000000000000000095
:104B20000000000000000000000000000000000085
:104B30001C00000043000000F8FFFFFF0C00000015
:104B40000E0000000F0000002E00000000127A008E
:104B50000000000000000000000000000000000055
:104B60000000000000000000000000000000000045
:104B70000000000000000000000000000000000035
:104B80000000000000000000000000000000000025
:104B90000000000000000000000000000000000015
:044BA0000000000011
:0400000508000235B8
:00000001FF
